:020000040000FA
:0300000002007F7C
:030013000203786D
:10002B0002039D00000080FBE4900281781C7901A3
:10003B008002F0A3D8FCD9FA7A9C7B029000AF78AF
:10004B000579018015E493A3AD82AE838A828B83FD
:10005B00F0A3AA82AB838D828E83D8E9D9E7758210
:10006B005975830D740012009175822E758300747F
:10007B000012009175D00075813F751581751602C0
:10008B00759F00020033C09FF59FE473D09F22D071
:10009B0083D082C09FE493C0E0740193C0E07402EC
:1000AB0093F59F221F01600012009ACA0B001200E9
:1000BB009A190C0012009A4B0C0012009ADD0C00DE
:1000CB0012009A8B0E0012009ADA0E0012009AA4FC
:1000DB00030012009ABA030012009AC40300120024
:1000EB009A36040012009A93040012009AC6040078
:1000FB0012009AF6040012009A4D050012009ABDE8
:10010B00050012009A14060012009A530600120002
:10011B009A86060012009AB8060012009AEB0600A7
:10012B0012009A2A070012009A5A070012009A8BA3
:10013B00070012009A33080012009A66080012009A
:10014B009A97080012009AD3080012009AC6090069
:10015B0012009AFB090012009A1F0A0012009A7AE9
:10016B000A0012009A8E0B0012009AB20B00CAC042
:10017B00E0E6F0A308DAFAD0E0FA22700422600D70
:10018B0018C6C333C608C633C6D5E0F418222515E6
:10019B0010AF08F515400C15168008F51540021523
:1001AB0016D2AF2200C0D0251510AF08F515500C94
:1001BB0005168008F51550020516D2AFD0D02225B2
:1001CB0015F58210AF08F515400C15168008F515BE
:1001DB0040021516D2AF851683222515F582E4351C
:1001EB0016F583222515FAE43516FB222515FCE4BA
:1001FB003516FD222515C582C0E0E51634FFC583F3
:10020B00C0E0E515C3958224F810AF0885831685E9
:10021B0082158008858316858215D2AFCEF0A3E5B3
:10022B0020F0A37808E608F0A3DEFAEFF0A3E5814F
:10023B0024FAF8E608F0A3E608F0A3E608F0A30812
:10024B0008E608F0A3E608F0A315811581D0E0FEBF
:10025B00D0E0F8158115811581E8C0E0EEC0E022F1
:10026B00851683851582E0A3FEE0A3F5207808E0D0
:10027B00A3F608DFFAE0A3FFE0A3C0E0E0A3C0E031
:10028B00E0A3C0E0E0A3C0E0E0A3C0E010AF0885AE
:10029B0082158583168008858215858316D2AFD08B
:1002AB0083D08202009774028000C0E0F404120134
:1002BB00CAD0E012017922D083D082ECC0E0EDC02D
:1002CB00E0E493A3FCE493A3FDED4C600D12030E4D
:1002DB00EC24FFFCED34FFFD80EFE493A3FCE493EF
:1002EB00A3FDED4C600D12034DEC24FFFCED34FF30
:1002FB00FD80EFD0E0FDD0E0FCE493A3C0E0E493FD
:10030B00C0E022C0E0C3E4939608740193961840B2
:10031B000FE49366700808740193661870007019E7
:10032B00A3A3C3E49396087401939618A3A3400D5B
:10033B00D0E0D0E0D0E00202FEA3A3A3A3A3A3D0FE
:10034B00E022C0E0C0F088F0E49366700808740106
:10035B009366187000A8F0A3A3700BD0F0D0E0D078
:10036B00E0D0E00202FEA3A3D0F0D0E022C0E0C0B8
:10037B00D0C082C083C2AA5386FB639001E5C190B3
:10038B00029CF090029D7401F0D083D082D0D0D02B
:10039B00E032C0D0C2C7D0D03253F3FB53FDFB4386
:1003AB008F4E7589FB758900C2C5D2BD020097437C
:1003BB00FE02C291D28702009774F51201FF74FE00
:1003CB00120199E9FEEAFF8515828516837400F008
:1003DB008F0A74FF250AFFE50A603F7C0174011246
:1003EB0001EFEEF91200CBE90E74011201E5E0709A
:1003FB0004D2F08002C2F0A2F0E433F508750900D4
:10040B00EF7808120186851582851683E04508F082
:10041B0074011201EF12016D80B6AA15AB16120111
:10042B006D74021201AF7F0302026BC082C0837432
:10043B00FF120199D2917A8279681200B9851582DF
:10044B0085168374C7F07C01AA15AB16793E120092
:10045B00D1E98515828516837431F07C01AA15AB21
:10046B001679171200D1E985158285168374FFF072
:10047B007C01AA15AB1679151200D1E97401120192
:10048B00AFD083D082020097C082C08374FF120169
:10049B00997A8279681200B98515828516837468FA
:1004AB00F0AA15AB161201737A06791D1200E374CC
:1004BB00011201AFD083D082020097C082C0837437
:1004CB00FF1201997A8279681200B97C01AA15ABE7
:1004DB0016791A1200CBE9851582851683E0F9741B
:1004EB00011201AFD083D08202009774F71201FF83
:1004FB0074FF120199E9FE7A8279681200B97C01C6
:10050B00AA15AB16793E1200CBE9EE600B8515826E
:10051B00851683E044408009851582851683E05457
:10052B00BFC0E0851582851683D0E0F07C01AA154B
:10053B00AB16793E1200D1E974011201AF7F0102B3
:10054B00026BC082C08374FF1201997A81790F12FA
:10055B0000B98515828516837400F07C01AA15AB52
:10056B0016791B1200D1E98515828516837403F069
:10057B007C01AA15AB16791D1200D1E98515828570
:10058B0016837438F07C01AA15AB16791E1200D1B4
:10059B00E9851582851683743FF07C01AA15AB168D
:1005AB00791F1200D1E974011201AFD083D08202FE
:1005BB00009774F71201FF74FF120199E9FE7A811B
:1005CB00790F1200B97C01AA15AB16791B1200CB5F
:1005DB00E9EE600B851582851683E0442080098542
:1005EB001582851683E054DFC0E08515828516835E
:1005FB00D0E0F07C01AA15AB16791B1200D1E9747F
:10060B00011201AF7F0102026B74F71201FF74FF3D
:10061B00120199E9FE7A81790F1200B97C01AA15B2
:10062B00AB16791B1200CBE9851582851683E0D2B8
:10063B00E7F07C01AA15AB16791B1200D1E9740106
:10064B001201AF7F0102026BC082C08374FF1201E3
:10065B00997A81790F1200B9851582851683740FEB
:10066B00F0AA15AB1612016D7A0679061200E37427
:10067B00011201AFD083D082020097C082C0837475
:10068B00FF1201997A81790F1200B97C01AA15AB7F
:10069B001679161200CBE9851582851683E0541066
:1006AB00F974011201AFD083D082020097C082C0CF
:1006BB008374FF1201997A81790E1200B985158224
:1006CB00851683740EF0AA15AB1612016D7A067996
:1006DB00021200E374011201AFD083D082020097A3
:1006EB0074F71201FF74FF120199E9FE7A81790EFA
:1006FB001200B97C01AA15AB1679101200CBE98553
:10070B001582851683E0D2E0F07C01AA15AB167931
:10071B00101200D1E974011201AF7F0102026BC00C
:10072B0082C08374FF1201997A81790E1200B97C11
:10073B0001AA15AB1679001200CBE9851582851637
:10074B0083E0F974011201AFD083D082020097C00D
:10075B0082C08374FF1201997A8179771200B9856F
:10076B0015828516837400F07C01AA15AB1679F1FE
:10077B001200D1E974011201AFD083D0820200972D
:10078B0074F71201FF74FF12019989087A81797746
:10079B001200B98515828516837401F0E50824FED5
:1007AB00600E24FA602224F8602E24D0603A804830
:1007BB00851582851683E0C0E0851582851683D06A
:1007CB00E0F07E407F008046851582851683E0D25F
:1007DB00E3F07E007F018036851582851683E0D29B
:1007EB00E4F07E007F028026851582851683E04427
:1007FB0018F07E007F088016851582851683E0C071
:10080B00E0851582851683D0E0F07E407F007C0169
:10081B00AA15AB1679F11200D1E9EEFAEFFB7401D0
:10082B001201AF7F0102026BC082C08374FF120101
:10083B00997A8179771200B9851582851683747739
:10084B00F0AA15AB1612016D7A0279F51200E3745A
:10085B00011201AFD083D082020097C082C0837493
:10086B00FF1201997A8179771200B9851582851665
:10087B00837400F07C01AA15AB1679F11200D1E953
:10088B0074011201AFD083D082020097C082C08363
:10089B007A8179401200B97C017A9B7B0279E7124D
:1008AB0000CBE990029BE0547EF090029AE0F89026
:1008BB00029BE048F07C017A9B7B0279E61200D127
:1008CB00E9D083D082020097C082C08374FC1201EE
:1008DB00997A8179401200B974031201E57440F0E2
:1008EB0074031201EF12016D79E3120155E97903DB
:1008FB00AA15AB1612015BE974011201E5E054FC79
:10090B00F0AA15AB1612016D74011201E5AA82ABA8
:10091B008312016D79E5120155E97903AA15AB161E
:10092B0012015BE974011201E5E054FCF0AA15AB6E
:10093B001612016D74011201E5AA82AB8312016DCF
:10094B00851582851683E07004D2F08002C2F08593
:10095B001582851683E07004D2F18002C2F18515F1
:10096B0082851683E07004D2F28002C2F285158272
:10097B00851683E07004D2F38002C2F3A2F3E43352
:10098B0033333354F8FAA2F2E433333354FCF9A281
:10099B00F1E433C333F8A2F0E43348494AC0E085AD
:1009AB001582851683D0E0F0AA15AB1612016D7473
:1009BB00041201AFD083D082020097C082C083742F
:1009CB00FF120199E9C0E0851582851683D0E0F00E
:1009DB00AA15AB1679011200C5E9640170047901FF
:1009EB008002790074011201AFD083D0820200978C
:1009FB0074F71201FFEAFEEBFF8908EEFAEFFBA991
:100A0B00081200BFE9650870047901800279007F44
:100A1B000102026B74F61201FF74FE12019943F18D
:100A2B000143FE2043F430438680A815A91688089D
:100A3B00890978081202B174031201F790029EE043
:100A4B00FAA3E0FB12016774021201AF85158285D0
:100A5B001683E042C574011201E5E042C243C48033
:100A6B00438640D2AA74021201AF7F0202026B745A
:100A7B00F61201FF740A1201E5E0F8A3E0F9E8FEB3
:100A8B00E9FF8A088B0978081202C200000B0018D4
:100A9B0000C80A3000D90A6000EA0A9000FB0AC0BD
:100AAB00000B0B20011B0B80012B0B40023B0B009F
:100ABB00034B0B80045B0B00096B0B7B0B8C828D48
:100ACB0083743BF08E828F837406F0020B898C82C9
:100ADB008D83743BF08E828F837407F0020B898CAD
:100AEB00828D83743BF08E828F837408F0020B89A6
:100AFB008C828D8374D8F08E828F837408F0807E05
:100B0B008C828D83743BF08E828F837409F0806EA0
:100B1B008C828D8374D8F08E828F837409F0805E03
:100B2B008C828D83743BF08E828F83740AF0804E9F
:100B3B008C828D8374D8F08E828F83740AF0803E02
:100B4B008C828D83743BF08E828F83740BF0802E9E
:100B5B008C828D8374D8F08E828F83740BF0801E01
:100B6B008C828D8374D8F08E828F83740CF0800E00
:100B7B008C828D83743BF08E828F837408F07F029E
:100B8B0002026BC082C0838A828B83E0F8E8700418
:100B9B0079018002E8F9E9F888C1E586A2E040FA1C
:100BAB00D083D082020097C082C0838A828B83E07D
:100BBB00F5C1E586A2E040FAD083D082020097C04F
:100BCB0082C083E9F8906230E0C2E3F0906230E0DB
:100BDB00D2E5F0906230E0A2E350F8906230E0C2D0
:100BEB00E5F0906231E064087018900281E0489063
:100BFB006232F0906230E0C2E3F0906230E0A2E348
:100C0B0050F8906231E0F9D083D082020097C08215
:100C1B00C083E9C333900281F09062347400F0908A
:100C2B0062337400F0906230E0547CF0906230E0FC
:100C3B004AF0906230E0D2E6F0D083D08202009787
:100C4B0074F61201FF8909EAFEEBFF7508007901C2
:100C5B001200B3E964406003750900E509C394020F
:100C6B004007906230E0D2E2F0E50960487401651C
:100C7B00097007906230E0C2E2F0906230E0C2E3AC
:100C8B00F0906230E0A2E350F8906232E0C0E08E68
:100C9B00828F83D0E0F08E828F83A3AE82AF8305E9
:100CAB00081509906231E0645060BE906231E064D7
:100CBB005860021508906230E0D2E4F0906230E0A8
:100CCB00C2E3F0906230E0A2E440F8A9087F020290
:100CDB00026B74F71201FF8908EAFEEBFF79001231
:100CEB0000B3E9641860037508007800E8C3950841
:100CFB00503F8E828F83E0906232F08E828F83A37F
:100D0B00AE82AF83906230E0C2E3F0906230E0A23B
:100D1B00E350F8906231E064286013906231E06434
:100D2B00307007740128F508800788088003088055
:100D3B00BB906230E0D2E4F0906230E0C2E3F0901E
:100D4B006230E0A2E440F8A9087F0102026B74FF55
:100D5B0012019953BEFBE59DA2E650FAE5C65480FD
:100D6B004449F5C6E59E547F644970F853C67FE548
:100D7B009EA2E740FA53C680E59E547F70FA43BEAD
:100D8B00049062707408F043FE0243FD80D29143DD
:100D9B00FD2043FF01758F4ED2871201615386FBF5
:100DAB004386401200DD1200D743FE0143FD10D2F3
:100DBB0090D2841200E91201017901120107D2AF1E
:100DCB0043BE0290029DE07003020E837A9C7B026D
:100DDB0012017390029CE0A2E0502A790012010DDF
:100DEB00120119E960FA120113790112010D790050
:100DFB001200FB1200F5E9F8E8A2E050F61200EF42
:100E0B0079011200FB90029CE0A2E15017790012CD
:100E1B00012512012BE9F8E8A2E350F612011F7924
:100E2B00011201257E0890029CE0A2E2501B1201E8
:100E3B0031EEF9120137EAFF8F0874FF2508FFE541
:100E4B000870F512013D12014390029CE0A2E350A1
:100E5B000612014912014F8515828516837400F025
:100E6B00AA15AB1612017363801090029CE0A2E4EA
:100E7B00400690029D7400F0D2AA5386FB020DCE61
:100E8B0074F61201FF74FF120199E9C0E085158217
:100E9B00851683D0E0F0EAFEEBFF8C08750900AAFB
:100EAB0015AB1679011200C5E96401700CEEFAEF6F
:100EBB00FBA9081200BFE9F509E50865097004797B
:100ECB00018002790074011201AF7F0202026B7480
:100EDB00F31201FF890C8A088B098C0B7E827F022F
:100EEB00E50CC0E08E828F83D0E0F08E828F83A3DF
:100EFB00AE82AF83750A00E50AC3950B502A8508AD
:100F0B0082850983E0C0E08E828F83D0E0F0850874
:100F1B0082850983A38582088583098E828F83A3AB
:100F2B00AE82AF83050A80CF050B7A827B02A90BB9
:100F3B001200C5E9F50AE50B650A600AA2845004A4
:100F4B00C2848002D284E50B650A700479018002A9
:070F5B0079007F0502026B23
:040000050000007F78
:00000001FF
