:020000040000FA
:0300000002007F7C
:10002B000203B800000080FBE49002817820790184
:10003B008002F0A3D8FCD9FA7AA07B029000AF78AB
:10004B000879018015E493A3AD82AE838A828B83FA
:10005B00F0A3AA82AB838D828E83D8E9D9E7758210
:10006B006275830D740012009175822E7583007476
:10007B000012009175D00075813F751581751602C0
:10008B00759F00020033C09FF59FE473D09F22D071
:10009B0083D082C09FE493C0E0740193C0E07402EC
:1000AB0093F59F220F0000001F300012009AD30B14
:1000BB000012009A220C0012009A540C0012009AA3
:1000CB00E60C0012009A7E0E0012009ACD0E001262
:1000DB00009ABF030012009AD5030012009AE103A5
:1000EB000012009AE8030012009AF2030012009A21
:1000FB0064040012009AC1040012009AF404001266
:10010B00009A24050012009A7B050012009AEB0559
:10011B000012009A42060012009A81060012009A01
:10012B00B4060012009AFA060012009A2D0700126C
:10013B00009A6C070012009A9C070012009ACD07D8
:10014B000012009A75080012009AA8080012009A73
:10015B00E4080012009AD7090012009A0C0A001248
:10016B00009A550F0012009AA70F0012009A300A3E
:10017B000012009A830A0012009A970B0012009A41
:10018B00BB0B00E026F008A3E036F008A3E036F046
:10019B0008A3E036F022E0FAA3E0FBA3E0FCA3E027
:1001AB00FD22EAF0A3EBF0A3ECF0A3EDF022CAC022
:1001BB00E0E6F0A308DAFAD0E0FA22700422600D30
:1001CB0018C6C333C608C633C6D5E0F418222515A6
:1001DB0010AF08F515400C15168008F515400215E3
:1001EB0016D2AF2200C0D0251510AF08F515500C54
:1001FB0005168008F51550020516D2AFD0D0222572
:10020B0015F58210AF08F515400C15168008F5157D
:10021B0040021516D2AF851683222515F582E435DB
:10022B0016F583222515FAE43516FB222515FCE479
:10023B003516FD222515C582C0E0E51634FFC583B2
:10024B00C0E0E515C3958224F810AF0885831685A9
:10025B0082158008858316858215D2AFCEF0A3E573
:10026B0020F0A37808E608F0A3DEFAEFF0A3E5810F
:10027B0024FAF8E608F0A3E608F0A3E608F0A308D2
:10028B0008E608F0A3E608F0A315811581D0E0FE7F
:10029B00D0E0F8158115811581E8C0E0EEC0E022B1
:1002AB00851683851582E0A3FEE0A3F5207808E090
:1002BB00A3F608DFFAE0A3FFE0A3C0E0E0A3C0E0F1
:1002CB00E0A3C0E0E0A3C0E0E0A3C0E010AF08856E
:1002DB0082158583168008858215858316D2AFD04B
:1002EB0083D08202009774028000C0E0F4041202F3
:1002FB000AD0E01201B922D083D082ECC0E0EDC06D
:10030B00E0E493A3FCE493A3FDED4C600D12034ECC
:10031B00EC24FFFCED34FFFD80EFE493A3FCE493AE
:10032B00A3FDED4C600D12038DEC24FFFCED34FFAF
:10033B00FD80EFD0E0FDD0E0FCE493A3C0E0E493BC
:10034B00C0E022C0E0C3E493960874019396184072
:10035B000FE49366700808740193661870007019A7
:10036B00A3A3C3E49396087401939618A3A3400D1B
:10037B00D0E0D0E0D0E002033EA3A3A3A3A3A3D07D
:10038B00E022C0E0C0F088F0E493667008087401C6
:10039B009366187000A8F0A3A3700BD0F0D0E0D038
:1003AB00E0D0E002033EA3A3D0F0D0E022C0D0C245
:1003BB00C7D0D03253F3FB53FDFB438F4E7589FBF4
:1003CB00758900C2C5D2BD020097E9F4F589E942EF
:1003DB00ABD2AF020097E9F452AB02009743FE0297
:1003EB00C291D28702009774F512023F74FE12017C
:1003FB00D9E9FEEAFF8515828516837400F08F0A12
:10040B0074FF250AFFE50A603F7C01740112022F7D
:10041B00EEF91200CEE90E7401120225E07004D23F
:10042B00F08002C2F0A2F0E433F508750900EF7812
:10043B00081201C6851582851683E04508F0740104
:10044B0012022F12018280B6AA15AB16120182740A
:10045B00021201EF7F030202ABC082C08374FF1252
:10046B0001D9D2917A8279681200BC8515828516E2
:10047B008374C7F07C01AA15AB16793E1200D4E940
:10048B008515828516837431F07C01AA15AB16791C
:10049B00171200D4E985158285168374FFF07C0151
:1004AB00AA15AB1679151200D4E974011201EFD01D
:1004BB0083D082020097C082C08374FF1201D97A65
:1004CB008279681200BC8515828516837468F0AA40
:1004DB0015AB161201887A06791D1200F2740112FF
:1004EB0001EFD083D082020097C082C08374FF12C9
:1004FB0001D97A8279681200BC7C01AA15AB1679F6
:10050B001A1200CEE9851582851683E0F974011263
:10051B0001EFD083D08202009774F712023F74FF71
:10052B001201D9E9FE7A8279681200BC7C01AA1506
:10053B00AB16793E1200CEE9EE600B85158285165F
:10054B0083E044408009851582851683E054BFC043
:10055B00E0851582851683D0E0F07C01AA15AB16D9
:10056B00793E1200D4E974011201EF7F010202AB54
:10057B00C082C08374FF1201D97A81790F1200BC3B
:10058B008515828516837400F07C01AA15AB16794C
:10059B001B1200D4E98515828516837403F07C0148
:1005AB00AA15AB16791D1200D4E985158285168321
:1005BB007438F07C01AA15AB16791E1200D4E985AC
:1005CB001582851683743FF07C01AA15AB16791F33
:1005DB001200D4E974011201EFD083D0820200978C
:1005EB0074F712023F74FF1201D9E9FE7A81790F79
:1005FB001200BC7C01AA15AB16791B1200CEE9EEDA
:10060B00600B851582851683E04420800985158251
:10061B00851683E054DFC0E0851582851683D0E014
:10062B00F07C01AA15AB16791B1200D4E9740112E8
:10063B0001EF7F010202AB74F712023F74FF12014C
:10064B00D9E9FE7A81790F1200BC7C01AA15AB1691
:10065B00791B1200CEE9851582851683E0D2E7F06F
:10066B007C01AA15AB16791B1200D4E97401120197
:10067B00EF7F010202ABC082C08374FF1201D97AF3
:10068B0081790F1200BC851582851683740FF0AA31
:10069B0015AB161201827A0679061200F27401125A
:1006AB0001EFD083D082020097C082C08374FF1207
:1006BB0001D97A81790E1200BC8515828516837457
:1006CB0080F07C01AA15AB1679111200D4E98515BF
:1006DB0082851683740AF07C01AA15AB1679101269
:1006EB0000D4E974011201EFD083D082020097C0CD
:1006FB0082C08374FF1201D97A81790E1200BC85F6
:10070B001582851683740EF0AA15AB161201827A28
:10071B000679021200F274011201EFD083D082022B
:10072B00009774F712023F74FF1201D9E9FE7A8128
:10073B00790E1200BC7C01AA15AB1679101200CEF3
:10074B00E9851582851683E0D2E0F07C01AA15AB12
:10075B001679101200D4E974011201EF7F01020225
:10076B00ABC082C08374FF1201D97A81790E12005B
:10077B00BC7C01AA15AB1679001200CEE985158257
:10078B00851683E0F974011201EFD083D082020049
:10079B0097C082C08374FF1201D97A8179771200D6
:1007AB00BC8515828516837400F07C01AA15AB16E7
:1007BB0079F11200D4E974011201EFD083D08202D7
:1007CB00009774F712023F74FF1201D989087A81DE
:1007DB0079771200BC8515828516837401F0E508C4
:1007EB0024FE600E24FA602224F8602E24D0603A96
:1007FB008048851582851683E0C0E08515828516B5
:10080B0083D0E0F07E407F0080468515828516837D
:10081B00E0D2E3F07E007F0180368515828516835A
:10082B00E0D2E4F07E007F02802685158285168358
:10083B00E04418F07E007F088016851582851683AC
:10084B00E0C0E0851582851683D0E0F07E407F0006
:10085B007C01AA15AB1679F11200D4E9EEFAEFFB85
:10086B0074011201EF7F010202ABC082C08374FFDF
:10087B001201D97A8179771200BC8515828516838E
:10088B007477F0AA15AB161201827A0279F5120071
:10089B00F274011201EFD083D082020097C082C0A4
:1008AB00837A8179401200BC7C017A9B7B0279E7C9
:1008BB001200CEE990029BE0547EF090029AE0F891
:1008CB0090029BE048F07C017A9B7B0279E6120058
:1008DB00D4E9D083D082020097C082C08374FC120B
:1008EB0001D97A8179401200BC740312022574403D
:1008FB00F0740312022F12018279E312015EE9797F
:10090B0003AA15AB16120164E97401120225E05417
:10091B00FCF0AA15AB161201827401120225AA82F1
:10092B00AB8312018279E512015EE97903AA15AB5B
:10093B0016120164E97401120225E054FCF0AA15A9
:10094B00AB161201827401120225AA82AB8312012B
:10095B0082851582851683E07004D2F08002C2F086
:10096B00851582851683E07004D2F18002C2F18571
:10097B001582851683E07004D2F28002C2F28515CF
:10098B0082851683E07004D2F38002C2F3A2F3E4F3
:10099B003333333354F8FAA2F2E433333354FCF9E0
:1009AB00A2F1E433C333F8A2F0E43348494AC0E080
:1009BB00851582851683D0E0F0AA15AB161201823D
:1009CB0074041201EFD083D082020097C082C083DF
:1009DB0074FF1201D9E9C0E0851582851683D0E03A
:1009EB00F0AA15AB1679011200C8E96401700479FD
:1009FB00018002790074011201EFD083D0820200D2
:100A0B009774F712023FEAFEEBFF8908EEFAEFFB51
:100A1B00A9081200C2E96508700479018002790007
:100A2B007F010202AB74F612023F74FE1201D9432E
:100A3B00F10143FE2043F430438680A815A91688A4
:100A4B0008890978081202F174031202379002A583
:100A5B00E0FAA3E0FB12017C74021201EF85158210
:100A6B00851683E042C57401120225E042C274026E
:100A7B001201EF7F020202AB74F612023F740A12EC
:100A8B000225E0F8A3E0F9E8FEE9FF8A088B097874
:100A9B000812030200000B001800D10A3000E20A12
:100AAB006000F30A9000040BC000140B2001240B10
:100ABB008001340B4002440B0003540B8004640B85
:100ACB000009740B840B8C828D83743BF08E828FA8
:100ADB00837406F0020B928C828D83743BF08E82B2
:100AEB008F837407F0020B928C828D83743BF08E94
:100AFB00828F837408F0020B928C828D8374D8F0F2
:100B0B008E828F837408F0807E8C828D83743BF091
:100B1B008E828F837409F0806E8C828D8374D8F0F3
:100B2B008E828F837409F0805E8C828D83743BF090
:100B3B008E828F83740AF0804E8C828D8374D8F0F2
:100B4B008E828F83740AF0803E8C828D83743BF08F
:100B5B008E828F83740BF0802E8C828D8374D8F0F1
:100B6B008E828F83740BF0801E8C828D8374D8F0F1
:100B7B008E828F83740CF0800E8C828D83743BF08D
:100B8B008E828F837408F07F020202ABC082C08317
:100B9B008A828B83E0F8E8700479018002E8F9E936
:100BAB00F888C1E586A2E040FAD083D08202009794
:100BBB00C082C0838A828B83E0F5C1E586A2E040C8
:100BCB00FAD083D082020097C082C083E9F890628A
:100BDB0030E0C2E3F0906230E0D2E5F0906230E0BA
:100BEB00A2E350F8906230E0C2E5F0906231E0642D
:100BFB00087018900281E048906232F0906230E009
:100C0B00C2E3F0906230E0A2E350F8906231E0F979
:100C1B00D083D082020097C082C083E9C333900295
:100C2B0081F09062347400F09062337400F0906243
:100C3B0030E0547CF0906230E04AF0906230E0D2C9
:100C4B00E6F0D083D08202009774F612023F890936
:100C5B00EAFEEBFF75080079011200B6E96440600B
:100C6B0003750900E509C394024007906230E0D296
:100C7B00E2F0E5096048740165097007906230E0A5
:100C8B00C2E2F0906230E0C2E3F0906230E0A2E3A7
:100C9B0050F8906232E0C0E08E828F83D0E0F08E0D
:100CAB00828F83A3AE82AF8305081509906231E072
:100CBB00645060BE906231E0645860021508906227
:100CCB0030E0D2E4F0906230E0C2E3F0906230E0CA
:100CDB00A2E440F8A9087F020202AB74F712023FAC
:100CEB008908EAFEEBFF79001200B6E9641860038D
:100CFB007508007800E8C39508503F8E828F83E01B
:100D0B00906232F08E828F83A3AE82AF839062307B
:100D1B00E0C2E3F0906230E0A2E350F8906231E081
:100D2B0064286013906231E064307007740128F519
:100D3B00088007880880030880BB906230E0D2E40B
:100D4B00F0906230E0C2E3F0906230E0A2E440F851
:100D5B00A9087F010202AB74FF1201D953BEFBE558
:100D6B009DA2E650FAE5C654804449F5C6E59E546B
:100D7B007F644970F853C67FE59EA2E740FA53C6DD
:100D8B0080E59E547F70FA43BE049062707408F045
:100D9B0043FE0243FD80D29143FD2043FF01758F3B
:100DAB004ED2871201761200EC1200DA43FE014399
:100DBB00FD10D290D2841200F812011079001201AA
:100DCB001C790012010A1201287900120134120158
:100DDB00401201527901120116D2AF7AA47B021292
:100DEB0001889002A4E0A2E0501079041200E043C5
:100DFB00870179041200E61201229002A4E0A2E11D
:100E0B00500D120104E9F8E8A2E050F61200FE9032
:100E1B0002A4E0A2E2500D12013AE9F8E8A2E35075
:100E2B00F612012E7E089002A4E0A2E35015EEF913
:100E3B00120146EAFF8F0874FF2508FFE50870F5DD
:100E4B0012014C9002A4E0A2E45003120158851544
:100E5B00828516837400F0AA15AB16120188639075
:100E6B00016380109002A01201A112016A43870155
:100E7B00020DE674F612023F74FF1201D9E9C0E0CD
:100E8B00851582851683D0E0F0EAFEEBFF8C0875A2
:100E9B000900AA15AB1679011200C8E96401700CA0
:100EAB00EEFAEFFBA9081200C2E9F509E50865099E
:100EBB00700479018002790074011201EF7F020244
:100ECB0002AB74F312023F890C8A088B098C0B7EE0
:100EDB00827F02E50CC0E08E828F83D0E0F08E82A1
:100EEB008F83A3AE82AF83750A00E50AC3950B50BF
:100EFB002A850882850983E0C0E08E828F83D0E04B
:100F0B00F0850882850983A38582088583098E82F3
:100F1B008F83A3AE82AF83050A80CF050B7A827BCA
:100F2B0002A90B1200C8E9F50AE50B650A600AA2D3
:100F3B00845004C2848002D284E50B650A70047964
:100F4B0001800279007F050202AB74F412023F7438
:100F5B00FC1201D98A088B098C0A8D0BC2AD1201C8
:100F6B00708515828516831201AD851582851683D2
:100F7B00780812018E7402120225E0F597740112A3
:100F8B000225E0F596851582851683E0F595C2C797
:100F9B00D2AD74041201EF7F040202ABC082C08396
:100FAB00E59590029CF0E59690029DF0E5979002F6
:100FBB009EF090029F7400F090029C1201A1D083CE
:050FCB00D08202009736
:040000050000007F78
:00000001FF
