:020000040000FA
:0300000002007F7C
:0300130002037174
:10002B0002039600000080FBE490028178247901A2
:10003B008002F0A3D8FCD9FA7AA47B029000AF78A7
:10004B000479018015E493A3AD82AE838A828B83FE
:10005B00F0A3AA82AB838D828E83D8E9D9E7758210
:10006B0080758309740012009175822E758300745C
:10007B000012009175D00075813F751581751602C0
:10008B00759F00020033C09FF59FE473D09F22D071
:10009B0083D082C09FE493C0E0740193C0E07402EC
:1000AB0093F59F2201600012009AEE0C0012009A49
:1000BB003D0D0012009A6F0D0012009A010E0012F6
:1000CB00009A7D0E0012009ACC0E0012009A9D032E
:1000DB000012009AAA030012009AB4030012009AAD
:1000EB0026040012009A98040012009AB104001220
:1000FB00009AE1040012009A66050012009A7F052F
:10010B000012009AB1050012009AF7050012009A2E
:10011B0010060012009A40060012009A7106001297
:10012B00009A19070012009AA5070012009ADA0725
:10013B000012009A66080012009A7F080012009ABB
:10014B00BB080012009A27090012009A5C090012E2
:10015B00009A430B0012009A9E0B0012009AB20CED
:10016B000012009AD60C00CAC0E0E6F0A308DAFA37
:10017B00D0E0FA22700422600D18C6C333C608C63D
:10018B0033C6D5E0F41822251510AF08F515400C31
:10019B0015168008F51540021516D2AF2200C0D0F7
:1001AB00251510AF08F515500C05168008F51550E0
:1001BB00020516D2AFD0D0222515F58210AF08F567
:1001CB0015400C15168008F51540021516D2AF8593
:1001DB001683222515F582E43516F583222515FAAB
:1001EB00E43516FB222515FCE43516FD222515C535
:1001FB0082C0E0E51634FFC583C0E0E515C39582E8
:10020B0024F810AF08858316858215800885831620
:10021B00858215D2AFCEF0A3E520F0A37808E608CF
:10022B00F0A3DEFAEFF0A3E58124FAF8E608F0A3D9
:10023B00E608F0A3E608F0A30808E608F0A3E60832
:10024B00F0A315811581D0E0FED0E0F81581158162
:10025B001581E8C0E0EEC0E022851683851582E0AB
:10026B00A3FEE0A3F5207808E0A3F608DFFAE0A3ED
:10027B00FFE0A3C0E0E0A3C0E0E0A3C0E0E0A3C0C8
:10028B00E0E0A3C0E010AF088582158583168008D7
:10029B00858215858316D2AFD083D08202009774E6
:1002AB00028000C0E0F4041201C3D0E012017222FC
:1002BB00D083D082ECC0E0EDC0E0E493A3FCE493E8
:1002CB00A3FDED4C600D120307EC24FFFCED34FF96
:1002DB00FD80EFE493A3FCE493A3FDED4C600D12C2
:1002EB000346EC24FFFCED34FFFD80EFD0E0FDD0A6
:1002FB00E0FCE493A3C0E0E493C0E022C0E0C3E4DD
:10030B009396087401939618400FE493667008084F
:10031B00740193661870007019A3A3C3E493960835
:10032B007401939618A3A3400DD0E0D0E0D0E00267
:10033B0002F7A3A3A3A3A3A3D0E022C0E0C0F0883D
:10034B00F0E4936670080874019366187000A8F0C7
:10035B00A3A3700BD0F0D0E0D0E0D0E00202F7A363
:10036B00A3D0F0D0E022C0E0C0D0C082C083C2AA2C
:10037B005386FB639001E5C1900281F09002A47457
:10038B0001F0D083D082D0D0D0E032C0D0C2C7D061
:10039B00D032438F4E758900C2C5D2BD0200974340
:1003AB00FE02C291D28702009774F51201F874FE17
:1003BB00120192E9FEEAFF8515828516837480F09F
:1003CB008F0A74FF250AFFE50A603F7C0174011256
:1003DB0001E8EEF91200CAE90E74011201DEE070B9
:1003EB0004D2F08002C2F0A2F0E433F508750900E4
:1003FB00EF780812017F851582851683E04508F09A
:10040B0074011201E812016680B6AA15AB1612012F
:10041B006C74021201A87F03020264C082C0837451
:10042B00FF120192D2917A8279681200B8851582F7
:10043B008516837400F07C01AA15AB16793E120069
:10044B00D0E98515828516837431F07C01AA15AB32
:10045B001679171200D0E98515828516837400F082
:10046B007C01AA15AB1679151200D0E9851582858A
:10047B0016837418F07C01AA15AB1679161200D0EE
:10048B00E974011201A8D083D082020097C082C008
:10049B00837A8279681200B87A06791D1200E2D04D
:1004AB0083D082020097C082C08374FF1201927ABC
:1004BB008279681200B87C01AA15AB16791A120062
:1004CB00CAE9851582851683E0F974011201A8D05B
:1004DB0083D082020097C082C08374FF1201927A8C
:1004EB0081790F1200B88515828516837400F07C14
:1004FB0001AA15AB16791B1200D0E985158285165A
:10050B00837403F07C01AA15AB16791D1200D0E998
:10051B008515828516837438F07C01AA15AB167984
:10052B001E1200D0E9851582851683743FF07C017D
:10053B00AA15AB16791F1200D0E985158285168393
:10054B0074F8F07C01AA15AB16791B1200D0E97474
:10055B00011201A8D083D082020097C082C0837A97
:10056B0081790F1200B87A0679061200E2D083D097
:10057B0082020097C082C08374FF1201927A817944
:10058B000F1200B87C01AA15AB1679161200CAE936
:10059B00851582851683E05410F974011201A8D0D9
:1005AB0083D082020097C082C08374FF1201927ABB
:1005BB0081790E1200B88515828516837480F07CC4
:1005CB0001AA15AB1679111200D0E9851582851693
:1005DB0083740BF07C01AA15AB1679101200D0E9CD
:1005EB0074011201A8D083D082020097C082C0830D
:1005FB007A81790E1200B87A0679011200E2D08363
:10060B00D082020097C082C08374FF1201927A815C
:10061B00790E1200B87C01AA15AB1679001200CA2C
:10062B00E9851582851683E0F974011201A8D08340
:10063B00D082020097C082C08374FF1201927A812C
:10064B0079771200B88515828516837400F07C01CA
:10065B00AA15AB1679F11200D0E974011201A8D0DA
:10066B0083D08202009774F71201F874FF12019283
:10067B0089087A8179771200B8851582851683747B
:10068B0001F0E50824FE600E24FA602224F8602EA7
:10069B0024D0603A8048851582851683E0C0E085BA
:1006AB001582851683D0E0F07E407F00804685154D
:1006BB0082851683E0D2E3F07E007F0180368515BC
:1006CB0082851683E0D2E4F07E007F0280268515BA
:1006DB0082851683E04418F07E007F08801685150E
:1006EB0082851683E0C0E0851582851683D0E0F005
:1006FB007E407F007C01AA15AB1679F11200D0E980
:10070B00EEFAEFFB74011201A87F0102026474F789
:10071B001201F874FF120192E9FE7A8179771200C7
:10072B00B88515828516837480F0EE60187C017A8B
:10073B009B7B0279F51200CAE97C017A9C7B0279DA
:10074B00F61200CAE990029BE07004D2F08002C25C
:10075B00F0A2F0E433F8851582851683E048F0901B
:10076B00029CE07004D2F08002C2F0A2F0E433C32A
:10077B0033F8851582851683E048F07A9B7B02124D
:10078B0001667A9C7B02120166AA15AB1612016CEC
:10079B0074011201A87F01020264C082C08374FF3E
:1007AB001201927A8179771200B8851582851683AA
:1007BB007413F07C01AA15AB1679F11200D0E97A0B
:1007CB00007BFA74011201A8D083D08202009774C7
:1007DB00F71201F874FF120192E9FE7A8179771210
:1007EB0000B88515828516837480F0EE60187C0145
:1007FB007A9D7B0279F51200CAE97C017A9E7B0215
:10080B0079F61200CAE990029DE07004D2F08002E2
:10081B00C2F0A2F0E433F8851582851683E048F028
:10082B0090029EE07004D2F08002C2F0A2F0E4339A
:10083B00C333F8851582851683E048F07A9D7B02D9
:10084B001201667A9E7B02120166AA15AB16120183
:10085B006C74011201A87F01020264C082C0837A0A
:10086B008179771200B87A10798E1200E2D083D09A
:10087B0082020097C082C0837A8179401200B87CD3
:10088B00017AA07B0279E71200CAE99002A0E0543A
:10089B007EF090029FE0F89002A0E048F07C017A95
:1008AB00A07B0279E61200D0E9D083D082020097B8
:1008BB0074F71201F8E9FE7A8179401200B8EE6004
:1008CB001779E512014EE979037AA17B02120154E3
:1008DB00E99002A2E054FCF07AA17B021201667A45
:1008EB00A27B021201669002A3E07004D2F0800298
:1008FB00C2F09002A3E07004D2F18002C2F1A2F127
:10090B00E433C333F8A2F0E4334844809002A3F0FD
:10091B007AA37B021201667F01020264C082C0834C
:10092B0074FF120192E9C0E0851582851683D0E031
:10093B00F0AA15AB1679011200C4E96401700479B1
:10094B00018002790074011201A8D083D0820200C9
:10095B009774F71201F8EAFEEBFF8908EEFAEFFB4A
:10096B00A9081200BEE965087004790180027900BC
:10097B007F0102026474FE12019253BEFBE59DA23D
:10098B00E650FAE5C654804449F5C6E59E547F64AB
:10099B004970F853C67FE59EA2E740FA53C680E53F
:1009AB009E547F70FA43BE049062707408F043FE4D
:1009BB000243FD80D29143FD2043FF01758F4ED240
:1009CB008712015A5386FB4386401200DC1200D675
:1009DB0043FE0143FD10C2901200E81200FA12010F
:1009EB000C12011ED2AF43BE027E019002A4E07036
:1009FB0003020B3B900281E0A2E45016740112013A
:100A0B00DE7403F074011201E812016612013C025C
:100A1B000B17900281E07003020B1774011201DEB9
:100A2B007404F074011201E812016C7A817B0212DA
:100A3B00016C900281E0A2E0502685158285168319
:100A4B007401F0AA15AB16120166120106E960FAE1
:100A5B001201001200F4E9F8E8A2E050F61200EEE1
:100A6B00900281E0A2E1501D8515828516837402E8
:100A7B00F0AA15AB16120166120118E9F8E8A2E309
:100A8B0050F61201127F02900281E0A2E2505D85C6
:100A9B0015828516837404F0AA15AB1612016675C0
:100AAB000803EE14600B14601A1460241460318078
:100ABB003BEFF9120124790012012A790012013659
:100ACB000E8029790112012A79001201360E801C41
:100ADB00120130790012012A79001201360E800CB6
:100AEB00790012012A79011201367E01900281E010
:100AFB00A2E350188515828516837408F0AA15ABEE
:100B0B001612016612014279011201487401120199
:100B1B00DE7400F074011201E812016C900281E0A6
:100B2B00A2E5400AD2849002A47400F08002C28431
:100B3B00D2AA5386FB0209F674F61201F874FE1260
:100B4B00019243F10143FE2043F430438680A81504
:100B5B00A9168808890978081202AA74031201F0F1
:100B6B009002A5E0FAA3E0FB12016074021201A847
:100B7B00851582851683E042C574011201DEE042C1
:100B8B00C243C480438640D2AA74021201A87F02DA
:100B9B0002026474F61201F8740A1201DEE0F8A383
:100BAB00E0F9E8FEE9FF8A088B0978081202BB001E
:100BBB00000B001800EC0B3000FD0B60000E0C90CE
:100BCB00001F0CC0002F0C20013F0C80014F0C406C
:100BDB00025F0C00036F0C80047F0C00098F0C9FCD
:100BEB000C8C828D83743BF08E828F837406F002A3
:100BFB000CAD8C828D83743BF08E828F837407F0E7
:100C0B00020CAD8C828D83743BF08E828F837408C3
:100C1B00F0020CAD8C828D8374D8F08E828F83742E
:100C2B0008F0807E8C828D83743BF08E828F837470
:100C3B0009F0806E8C828D8374D8F08E828F8374D2
:100C4B0009F0805E8C828D83743BF08E828F83746F
:100C5B000AF0804E8C828D8374D8F08E828F8374D1
:100C6B000AF0803E8C828D83743BF08E828F83746E
:100C7B000BF0802E8C828D8374D8F08E828F8374D0
:100C8B000BF0801E8C828D8374D8F08E828F8374D0
:100C9B000CF0800E8C828D83743BF08E828F83746C
:100CAB0008F07F02020264C082C0838A828B83E0D9
:100CBB00F8E8700479018002E8F9E9F888C1E58663
:100CCB00A2E040FAD083D082020097C082C0838A10
:100CDB00828B83E0F5C1E586A2E040FAD083D08217
:100CEB00020097C082C083E9F8906230E0C2E3F063
:100CFB00906230E0D2E5F0906230E0A2E350F890E1
:100D0B006230E0C2E5F0906231E064087018900246
:100D1B0082E048906232F0906230E0C2E3F0906281
:100D2B0030E0A2E350F8906231E0F9D083D0820238
:100D3B000097C082C083E9C333900282F090623483
:100D4B007400F09062337400F0906230E0547CF0E9
:100D5B00906230E04AF0906230E0D2E6F0D083D07F
:100D6B008202009774F61201F88909EAFEEBFF750F
:100D7B00080079011200B2E964406003750900E5CF
:100D8B0009C394024007906230E0D2E2F0E50960BB
:100D9B0048740165097007906230E0C2E2F090621E
:100DAB0030E0C2E3F0906230E0A2E350F8906232A0
:100DBB00E0C0E08E828F83D0E0F08E828F83A3AE73
:100DCB0082AF8305081509906231E0645060BE90D4
:100DDB006231E0645860021508906230E0D2E4F0B2
:100DEB00906230E0C2E3F0906230E0A2E440F8A9F8
:100DFB00087F0202026474F71201F88908EAFEEB1D
:100E0B00FF79001200B2E9641860037508007800DE
:100E1B00E8C39508503F8E828F83E0906232F08E4C
:100E2B00828F83A3AE82AF83906230E0C2E3F090F7
:100E3B006230E0A2E350F8906231E06428601390D6
:100E4B006231E064307007740128F5088007880868
:100E5B0080030880BB906230E0D2E4F0906230E017
:100E6B00C2E3F0906230E0A2E440F8A9087F0102EF
:100E7B00026474F61201F874FF120192E9C0E08566
:100E8B001582851683D0E0F0EAFEEBFF8C0875091E
:100E9B0000AA15AB1679011200C4E96401700CEEBF
:100EAB00FAEFFBA9081200BEE9F509E50865097020
:100EBB000479018002790074011201A87F020202F9
:100ECB006474F31201F8890C8A088B098C0B7E83EE
:100EDB007F02E50CC0E08E828F83D0E0F08E828F94
:100EEB0083A3AE82AF83750A00E50AC3950B502A24
:100EFB00850882850983E0C0E08E828F83D0E0F085
:100F0B00850882850983A38582088583098E828F54
:100F1B0083A3AE82AF83050A80CF050B7A837B0256
:100F2B00A90B1200C4E9F50AE50B650A600AA28455
:100F3B005004C2848002D284E50B650A70047901E7
:090F4B00800279007F05020264B6
:040000050000007F78
:00000001FF
