:020000040000FA
:030000000200BF3C
:0300130002030BDA
:03002B0002032E9F
:10006B0002033800000080FBE490028178237901C1
:10007B008002F0A3D8FCD9FA7AA37B029000EF7828
:10008B000379018015E493A3AD82AE838A828B83BF
:10009B00F0A3AA82AB838D828E83D8E9D9E77582D0
:1000AB004875830374001200D175826E75830074DA
:1000BB00001200D175D00075813F75158175160240
:1000CB00759F00020073C09FF59FE473D09F22D0F1
:1000DB0083D082C09FE493C0E0740193C0E07402AC
:1000EB0093F59F2260001200DA7605001200DAC544
:1000FB0005001200DAF705001200DA89060012007B
:10010B00DA6C08001200DABB08001200DA430900AF
:10011B001200DA0507001200DA580700CAC0E0E641
:10012B00F0A308DAFAD0E0FA22251510AF08F5157E
:10013B00400C15168008F51540021516D2AF22009B
:10014B00C0D0251510AF08F515500C05168008F515
:10015B001550020516D2AFD0D0222515F58210AF5F
:10016B0008F515400C15168008F51540021516D22A
:10017B00AF851683222515F582E43516F5832225E6
:10018B0015FCE43516FD222515C582C0E0E51634B5
:10019B00FFC583C0E0E515C3958224F810AF088531
:1001AB0083168582158008858316858215D2AFCE7E
:1001BB00F0A3E520F0A37808E608F0A3DEFAEFF051
:1001CB00A3E58124FAF8E608F0A3E608F0A3E60815
:1001DB00F0A30808E608F0A3E608F0A31581158143
:1001EB00D0E0FED0E0F8158115811581E8C0E0EE76
:1001FB00C0E022851683851582E0A3FEE0A3F520DF
:10020B007808E0A3F608DFFAE0A3FFE0A3C0E0E084
:10021B00A3C0E0E0A3C0E0E0A3C0E0E0A3C0E01017
:10022B00AF08858215858316800885821585831610
:10023B00D2AFD083D0820200D774028000C0E0F42A
:10024B0004120165D0E012012722D083D082ECC0CA
:10025B00E0EDC0E0E493A3FCE493A3FDED4C600D53
:10026B001202A1EC24FFFCED34FFFD80EFE493A31D
:10027B00FCE493A3FDED4C600D1202E0EC24FFFCBB
:10028B00ED34FFFD80EFD0E0FDD0E0FCE493A3C0A4
:10029B00E0E493C0E022C0E0C3E4939608740193BA
:1002AB009618400FE49366700808740193661870F3
:1002BB00007019A3A3C3E49396087401939618A333
:1002CB00A3400DD0E0D0E0D0E0020291A3A3A3A302
:1002DB00A3A3D0E022C0E0C0F088F0E493667008DE
:1002EB000874019366187000A8F0A3A3700BD0F0EC
:1002FB00D0E0D0E0D0E0020291A3A3D0F0D0E02276
:10030B00C0E0C0D0C082C083C2AA5386FB900282D9
:10031B007401F0900281E02401F0D083D082D0D020
:10032B00D0E032C0D0C2C7639001D0D032C0E0C0A1
:10033B00D0E589758900C2C5D0D0D0E03253BEFB61
:10034B00E59DA2E650FAE5C654804449F5C6E59E04
:10035B00547F644970F853C67FE59EA2E740FA5379
:10036B00C680E59E547F70FA43BE04906270740899
:10037B00F043FE0143FD1043FE0243FD80D2914347
:10038B00FD2043FF0143FE3C758F4ED28712011BAC
:10039B005386FB43864012011543FE0143FD10D2E9
:1003AB0090D28443BE02D2AAD2AF900282E07003F5
:1003BB000205719002827400F0E5C1FF900287E0A4
:1003CB00700302046E900283E064C0702990028671
:1003DB00E070107A887B02900287E0F91200FDE949
:1003EB00FE8013900287E0FC7A887B02900286E005
:1003FB00F9120109E9FE900283E064E06003020454
:10040B00A1900281E0F87900E824FEF8E934FFF9C5
:10041B00900287E0FA7B00EA687002EB69702B9020
:10042B000286E070107A887B02900287E0F9120155
:10043B0003E9FE8061900287E0FC7A887B029002E0
:10044B0086E0F912010FE9FE804CEFC0E0900281CB
:10045B00E0F87900748528F582740239F583D0E0D1
:10046B00F0803374F06F700C9002817400F0900286
:10047B008374F0F074E06F700C9002817400F09054
:10048B00028374E0F074C06F700C9002817400F002
:10049B0090028374C0F0900281E064016003020556
:1004AB0056900283E064F060030205417E00EF2466
:1004BB00F2603514601224CF604E24FC605A24DCA9
:1004CB00601624F16032805E900285740FF090020A
:1004DB00847481F07E01804E9002857468F09002E6
:1004EB00847482F07E01803E900285740EF090023F
:1004FB00847481F07E01802E9002857477F09002D7
:10050B00847481F07E01801E9002857440F090020D
:10051B00847481F07E01800E9002857444F0900209
:10052B00847482F07E01EE600D900284E0FA9002FA
:10053B0085E0F91200F7900283E064E06008900216
:10054B0083E064C07005EF900286F0900281E06456
:10055B00027013EFC394035007EF900287F08006ED
:10056B009002877400F0D2AA0203B5C082C083E95F
:10057B00F8906230E0C2E3F0906230E0D2E5F090A8
:10058B006230E0A2E350F8906230E0C2E5F0906296
:10059B0031E06408701890028AE048906232F09063
:1005AB006230E0C2E3F0906230E0A2E350F8906278
:1005BB0031E0F9D083D0820200D7C082C083E9C377
:1005CB003390028AF09062347400F09062337400BE
:1005DB00F0906230E0547CF0906230E04AF0906230
:1005EB0030E0D2E6F0D083D0820200D774F612014D
:1005FB00928909EAFEEBFF75080079011200F1E917
:10060B0064406003750900E509C3940240079062DA
:10061B0030E0D2E2F0E5096048740165097007909B
:10062B006230E0C2E2F0906230E0C2E3F090623000
:10063B00E0A2E350F8906232E0C0E08E828F83D06C
:10064B00E0F08E828F83A3AE82AF830508150990ED
:10065B006231E0645060BE906231E0645860021514
:10066B0008906230E0D2E4F0906230E0C2E3F090A8
:10067B006230E0A2E440F8A9087F020201FE74F7A1
:10068B001201928908EAFEEBFF79001200F1E9648E
:10069B001860037508007800E8C39508503F8E82F8
:1006AB008F83E0906232F08E828F83A3AE82AF8312
:1006BB00906230E0C2E3F0906230E0A2E350F89039
:1006CB006231E064286013906231E064307007742B
:1006DB000128F5088007880880030880BB906230EA
:1006EB00E0D2E4F0906230E0C2E3F0906230E0A23E
:1006FB00E440F8A9087F010201FE74F6120192741E
:10070B00FE12013443F10143FE2043F43043868053
:10071B00A815A916880889097808120244740312CF
:10072B00018A9002A3E0FAA3E0FB120121740212EA
:10073B00014A851582851683E042C574011201803A
:10074B00E042C2740212014A7F020201FE74F612E9
:10075B000192740A120180E0F8A3E0F9E8FEE9FFC8
:10076B008A088B09780812025500000B001800A6A6
:10077B00073000B7076000C8079000D907C000E931
:10078B00072001F907800109084002190800032915
:10079B0008800439080009490859088C828D837434
:1007AB003BF08E828F837406F00208678C828D83F8
:1007BB00743BF08E828F837407F00208678C828DF6
:1007CB0083743BF08E828F837408F00208678C82EF
:1007DB008D8374D8F08E828F837408F0807E8C8228
:1007EB008D83743BF08E828F837409F0806E8C82C4
:1007FB008D8374D8F08E828F837409F0805E8C8227
:10080B008D83743BF08E828F83740AF0804E8C82C2
:10081B008D8374D8F08E828F83740AF0803E8C8225
:10082B008D83743BF08E828F83740BF0802E8C82C1
:10083B008D8374D8F08E828F83740BF0801E8C8224
:10084B008D8374D8F08E828F83740CF0800E8C8223
:10085B008D83743BF08E828F837408F07F020201CC
:10086B00FE74F612019274FF120134E9C0E0851593
:10087B0082851683D0E0F0EAFEEBFF8C0875090049
:10088B00AA15AB167901120103E96401700CEEFA9B
:10089B00EFFBA9081200FDE9F509E50865097004ED
:1008AB00790180027900740112014A7F020201FE74
:1008BB0074F3120192890C8A088B098C0B7E8B7F47
:1008CB0002E50CC0E08E828F83D0E0F08E828F83A6
:1008DB00A3AE82AF83750A00E50AC3950B502A8538
:1008EB000882850983E0C0E08E828F83D0E0F0859B
:1008FB000882850983A38582088583098E828F836D
:10090B00A3AE82AF83050A80CF050B7A8B7B02A93E
:10091B000B120103E9F50AE50B650A600AA2845084
:10092B0004C2848002D284E50B650A7004790180CD
:10093B000279007F050201FE53F3FD53FDFD53F3D6
:10094B00FB53FDFB53F3BF53FDBF53F3F753FDF7BE
:10095B00438F4E7589FD7589FB7589BF7589F77551
:09096B008900C2C5D2BD0200D70B
:04000005000000BF38
:00000001FF
