:020000040000FA
:0300000002007F7C
:030013000203786D
:10002B0002039D00000080FBE4900281781C7901A3
:10003B008002F0A3D8FCD9FA7A9C7B029000AF78AF
:10004B000579018015E493A3AD82AE838A828B83FD
:10005B00F0A3AA82AB838D828E83D8E9D9E7758210
:10006B007075830D740012009175822E7583007468
:10007B000012009175D00075813F751581751602C0
:10008B00759F00020033C09FF59FE473D09F22D071
:10009B0083D082C09FE493C0E0740193C0E07402EC
:1000AB0093F59F221F01600012009AE10B001200D2
:1000BB009A300C0012009A620C0012009AF40C0099
:1000CB0012009AA20E0012009AF10E0012009AA4CE
:1000DB00030012009ABA030012009AC40300120024
:1000EB009A36040012009A93040012009AC6040078
:1000FB0012009AF6040012009A4D050012009AD2D3
:10010B00050012009A29060012009A6806001200D8
:10011B009A9B060012009ACD060012009A00070067
:10012B0012009A3F070012009A6F070012009AA064
:10013B00070012009A48080012009A7B0800120070
:10014B009AAC080012009AE8080012009ADD090028
:10015B0012009A120A0012009A360A0012009A91A3
:10016B000A0012009AA50B0012009AC90B00CAC014
:10017B00E0E6F0A308DAFAD0E0FA22700422600D70
:10018B0018C6C333C608C633C6D5E0F418222515E6
:10019B0010AF08F515400C15168008F51540021523
:1001AB0016D2AF2200C0D0251510AF08F515500C94
:1001BB0005168008F51550020516D2AFD0D02225B2
:1001CB0015F58210AF08F515400C15168008F515BE
:1001DB0040021516D2AF851683222515F582E4351C
:1001EB0016F583222515FAE43516FB222515FCE4BA
:1001FB003516FD222515C582C0E0E51634FFC583F3
:10020B00C0E0E515C3958224F810AF0885831685E9
:10021B0082158008858316858215D2AFCEF0A3E5B3
:10022B0020F0A37808E608F0A3DEFAEFF0A3E5814F
:10023B0024FAF8E608F0A3E608F0A3E608F0A30812
:10024B0008E608F0A3E608F0A315811581D0E0FEBF
:10025B00D0E0F8158115811581E8C0E0EEC0E022F1
:10026B00851683851582E0A3FEE0A3F5207808E0D0
:10027B00A3F608DFFAE0A3FFE0A3C0E0E0A3C0E031
:10028B00E0A3C0E0E0A3C0E0E0A3C0E010AF0885AE
:10029B0082158583168008858215858316D2AFD08B
:1002AB0083D08202009774028000C0E0F404120134
:1002BB00CAD0E012017922D083D082ECC0E0EDC02D
:1002CB00E0E493A3FCE493A3FDED4C600D12030E4D
:1002DB00EC24FFFCED34FFFD80EFE493A3FCE493EF
:1002EB00A3FDED4C600D12034DEC24FFFCED34FF30
:1002FB00FD80EFD0E0FDD0E0FCE493A3C0E0E493FD
:10030B00C0E022C0E0C3E4939608740193961840B2
:10031B000FE49366700808740193661870007019E7
:10032B00A3A3C3E49396087401939618A3A3400D5B
:10033B00D0E0D0E0D0E00202FEA3A3A3A3A3A3D0FE
:10034B00E022C0E0C0F088F0E49366700808740106
:10035B009366187000A8F0A3A3700BD0F0D0E0D078
:10036B00E0D0E00202FEA3A3D0F0D0E022C0E0C0B8
:10037B00D0C082C083C2AA5386FB639001E5C190B3
:10038B00029CF090029D7401F0D083D082D0D0D02B
:10039B00E032C0D0C2C7D0D03253F3FB53FDFB4386
:1003AB008F4E7589FB758900C2C5D2BD020097437C
:1003BB00FE02C291D28702009774F51201FF74FE00
:1003CB00120199E9FEEAFF85158285168374F0F018
:1003DB008F0A74FF250AFFE50A603F7C0174011246
:1003EB0001EFEEF91200CBE90E74011201E5E0709A
:1003FB0004D2F08002C2F0A2F0E433F508750900D4
:10040B00EF7808120186851582851683E04508F082
:10041B0074011201EF12016D80B6AA15AB16120111
:10042B006D74021201AF7F0302026BC082C0837432
:10043B00FF120199D2917A8279681200B9851582DF
:10044B0085168374C7F07C01AA15AB16793E120092
:10045B00D1E98515828516837431F07C01AA15AB21
:10046B001679171200D1E985158285168374FFF072
:10047B007C01AA15AB1679151200D1E97401120192
:10048B00AFD083D082020097C082C08374FF120169
:10049B00997A8279681200B98515828516837468FA
:1004AB00F0AA15AB161201737A06791D1200E374CC
:1004BB00011201AFD083D082020097C082C0837437
:1004CB00FF1201997A8279681200B97C01AA15ABE7
:1004DB0016791A1200CBE9851582851683E0F9741B
:1004EB00011201AFD083D08202009774F71201FF83
:1004FB0074FF120199E9FE7A8279681200B97C01C6
:10050B00AA15AB16793E1200CBE9EE600B8515826E
:10051B00851683E044408009851582851683E05457
:10052B00BFC0E0851582851683D0E0F07C01AA154B
:10053B00AB16793E1200D1E974011201AF7F0102B3
:10054B00026BC082C08374FF1201997A81790F12FA
:10055B0000B98515828516837400F07C01AA15AB52
:10056B0016791B1200D1E98515828516837458F014
:10057B007C01AA15AB16791B1200D1E98515828572
:10058B0016837403F07C01AA15AB16791D1200D1EA
:10059B00E98515828516837438F07C01AA15AB1694
:1005AB00791E1200D1E9851582851683743FF07C84
:1005BB0001AA15AB16791F1200D1E974011201AF14
:1005CB00D083D08202009774F71201FF74FF1201DF
:1005DB0099E9FE7A81790F1200B97C01AA15AB1645
:1005EB00791B1200CBE9EE600B851582851683E033
:1005FB0044208009851582851683E054DFC0E08591
:10060B001582851683D0E0F07C01AA15AB16791BF9
:10061B001200D1E974011201AF7F0102026B74F772
:10062B001201FF74FF120199E9FE7A81790F120012
:10063B00B97C01AA15AB16791B1200CBE985158283
:10064B00851683E0D2E7F07C01AA15AB16791B1255
:10065B0000D1E974011201AF7F0102026BC082C0AD
:10066B008374FF1201997A81790F1200B985158273
:10067B00851683740FF0AA15AB1612016D7A0679E5
:10068B00061200E374011201AFD083D082020097EF
:10069B00C082C08374FF1201997A81790F1200B95D
:1006AB007C01AA15AB1679161200CBE9851582854C
:1006BB001683E05410F974011201AFD083D082027B
:1006CB000097C082C08374FF1201997A81790E1250
:1006DB0000B9851582851683740EF0AA15AB161218
:1006EB00016D7A0679021200E374011201AFD08317
:1006FB00D08202009774F71201FF74FF120199E97F
:10070B00FE7A81790E1200B97C01AA15AB1679100D
:10071B001200CBE9851582851683E0D2E0F07C01CF
:10072B00AA15AB1679101200D1E974011201AF7F33
:10073B000102026BC082C08374FF1201997A817926
:10074B000E1200B97C01AA15AB1679001200CBE989
:10075B00851582851683E0F974011201AFD083D021
:10076B0082020097C082C08374FF1201997A81794B
:10077B00771200B98515828516837400F07C01AA67
:10078B0015AB1679F11200D1E974011201AFD083C8
:10079B00D08202009774F71201FF74FF120199893E
:1007AB00087A8179771200B98515828516837401D1
:1007BB00F0E50824FE600E24FA602224F8602E2453
:1007CB00D0603A8048851582851683E0C0E0851598
:1007DB0082851683D0E0F07E407F008046851582AF
:1007EB00851683E0D2E3F07E007F0180368515828B
:1007FB00851683E0D2E4F07E007F02802685158289
:10080B00851683E04418F07E007F088016851582DC
:10081B00851683E0C0E0851582851683D0E0F07ED7
:10082B00407F007C01AA15AB1679F11200D1E9EEDD
:10083B00FAEFFB74011201AF7F0102026BC082C0A1
:10084B008374FF1201997A8179771200B985158229
:10085B008516837477F0AA15AB1612016D7A02799F
:10086B00F51200E374011201AFD083D0820200971E
:10087B00C082C08374FF1201997A8179771200B913
:10088B008515828516837400F07C01AA15AB167949
:10089B00F11200D1E974011201AFD083D0820200B2
:1008AB0097C082C0837A8179401200B97C017A9B10
:1008BB007B0279E71200CBE990029BE0547EF0902B
:1008CB00029AE0F890029BE048F07C017A9B7B0255
:1008DB0079E61200D1E9D083D082020097C082C0A2
:1008EB008374FC1201997A8179401200B974031256
:1008FB0001E57440F074031201EF12016D79E312FC
:10090B000155E97903AA15AB1612015BE9740112C3
:10091B0001E5E054FCF0AA15AB1612016D7401123F
:10092B0001E5AA82AB8312016D79E5120155E979D4
:10093B0003AA15AB1612015BE974011201E5E05431
:10094B00FCF0AA15AB1612016D74011201E5AA8217
:10095B00AB8312016D851582851683E07004D2F08E
:10096B008002C2F0851582851683E07004D2F18077
:10097B0002C2F1851582851683E07004D2F28002E3
:10098B00C2F2851582851683E07004D2F38002C211
:10099B00F3A2F3E43333333354F8FAA2F2E43333F0
:1009AB003354FCF9A2F1E433C333F8A2F0E4334837
:1009BB00494A44F0C0E0851582851683D0E0F0AA41
:1009CB0015AB1612016D74041201AFD083D08202E5
:1009DB000097C082C08374FF120199E9C0E08515AE
:1009EB0082851683D0E0F0AA15AB1679011200C5EB
:1009FB00E96401700479018002790074011201AF7E
:100A0B00D083D08202009774F71201FFEAFEEBFF4E
:100A1B008908EEFAEFFBA9081200BFE9650870041C
:100A2B007901800279007F0102026B74F61201FFDB
:100A3B0074FE12019943F10143FE2043F4304386C7
:100A4B0080A815A9168808890978081202B17403C1
:100A5B001201F790029EE0FAA3E0FB120167740209
:100A6B001201AF851582851683E042C57401120110
:100A7B00E5E042C243C480438640D2AA740212010D
:100A8B00AF7F0202026B74F61201FF740A1201E5CA
:100A9B00E0F8A3E0F9E8FEE9FF8A088B0978081271
:100AAB0002C200000B001800DF0A3000F00A6000E1
:100ABB00010B9000120BC000220B2001320B8001A6
:100ACB00420B4002520B0003620B8004720B0009B5
:100ADB00820B920B8C828D83743BF08E828F83748E
:100AEB0006F0020BA08C828D83743BF08E828F8379
:100AFB007407F0020BA08C828D83743BF08E828F77
:100B0B00837408F0020BA08C828D8374D8F08E82D4
:100B1B008F837408F0807E8C828D83743BF08E8281
:100B2B008F837409F0806E8C828D8374D8F08E82E3
:100B3B008F837409F0805E8C828D83743BF08E8280
:100B4B008F83740AF0804E8C828D8374D8F08E82E2
:100B5B008F83740AF0803E8C828D83743BF08E827F
:100B6B008F83740BF0802E8C828D8374D8F08E82E1
:100B7B008F83740BF0801E8C828D8374D8F08E82E1
:100B8B008F83740CF0800E8C828D83743BF08E827D
:100B9B008F837408F07F0202026BC082C0838A824B
:100BAB008B83E0F8E8700479018002E8F9E9F888B2
:100BBB00C1E586A2E040FAD083D082020097C082C2
:100BCB00C0838A828B83E0F5C1E586A2E040FAD030
:100BDB0083D082020097C082C083E9F8906230E034
:100BEB00C2E3F0906230E0D2E5F0906230E0A2E335
:100BFB0050F8906230E0C2E5F0906231E06408702A
:100C0B0018900281E048906232F0906230E0C2E3CB
:100C1B00F0906230E0A2E350F8906231E0F9D083BB
:100C2B00D082020097C082C083E9C333900281F067
:100C3B009062347400F09062337400F0906230E094
:100C4B00547CF0906230E04AF0906230E0D2E6F0F3
:100C5B00D083D08202009774F61201FF8909EAFE55
:100C6B00EBFF75080079011200B3E964406003756E
:100C7B000900E509C394024007906230E0D2E2F02C
:100C8B00E5096048740165097007906230E0C2E2C3
:100C9B00F0906230E0C2E3F0906230E0A2E350F8F3
:100CAB00906232E0C0E08E828F83D0E0F08E828F34
:100CBB0083A3AE82AF8305081509906231E06450BF
:100CCB0060BE906231E0645860021508906230E0BB
:100CDB00D2E4F0906230E0C2E3F0906230E0A2E444
:100CEB0040F8A9087F0202026B74F71201FF890812
:100CFB00EAFEEBFF79001200B3E964186003750894
:100D0B00007800E8C39508503F8E828F83E0906295
:100D1B0032F08E828F83A3AE82AF83906230E0C2BB
:100D2B00E3F0906230E0A2E350F8906231E0642887
:100D3B006013906231E064307007740128F508800D
:100D4B0007880880030880BB906230E0D2E4F09003
:100D5B006230E0C2E3F0906230E0A2E440F8A90810
:100D6B007F0102026B74FF12019953BEFBE59DA23A
:100D7B00E650FAE5C654804449F5C6E59E547F64B7
:100D8B004970F853C67FE59EA2E740FA53C680E54B
:100D9B009E547F70FA43BE049062707408F043FE59
:100DAB000243FD80D29143FD2043FF01758F4ED24C
:100DBB00871201615386FB4386401200DD1200D778
:100DCB0043FE0143FD10D290D2841200E9120101BF
:100DDB007901120107D2AF43BE0290029DE070036E
:100DEB00020E9A7A9C7B0212017390029CE0A2E0A5
:100DFB00502A790012010D120119E960FA12011340
:100E0B00790112010D79001200FB1200F5E9F8E8E7
:100E1B00A2E050F61200EF79011200FB90029CE069
:100E2B00A2E15017790012012512012BE9F8E8A273
:100E3B00E350F612011F79011201257E0890029CE6
:100E4B00E0A2E2501B120131EEF9120137EAFF8FDB
:100E5B000874FF2508FFE50870F512013D120143E8
:100E6B0090029CE0A2E3500612014912014F851536
:100E7B00828516837400F0AA15AB1612017363807A
:100E8B001090029CE0A2E4400690029D7400F0D208
:100E9B00AA5386FB020DE574F61201FF74FF1201D3
:100EAB0099E9C0E0851582851683D0E0F0EAFEEB68
:100EBB00FF8C08750900AA15AB1679011200C5E95C
:100ECB006401700CEEFAEFFBA9081200BFE9F509FB
:100EDB00E50865097004790180027900740112013B
:100EEB00AF7F0202026B74F31201FF890C8A088B2D
:100EFB00098C0B7E827F02E50CC0E08E828F83D043
:100F0B00E0F08E828F83A3AE82AF83750A00E50A71
:100F1B00C3950B502A850882850983E0C0E08E8239
:100F2B008F83D0E0F0850882850983A385820885AD
:100F3B0083098E828F83A3AE82AF83050A80CF0590
:100F4B000B7A827B02A90B1200C5E9F50AE50B654A
:100F5B000A600AA2845004C2848002D284E50B6525
:0E0F6B000A70047901800279007F0502026B92
:040000050000007F78
:00000001FF
