:020000040000FA
:030000000200BF3C
:03002B000203BC11
:10006B000203C600000080FBE4900281781C79013A
:10007B008002F0A3D8FCD9FA7A9C7B029000EF782F
:10008B000479018015E493A3AD82AE838A828B83BE
:10009B00F0A3AA82AB838D828E83D8E9D9E77582D0
:1000AB00E175830D74001200D175826E7583007437
:1000BB00001200D175D00075813F75158175160240
:1000CB00759F00020073C09FF59FE473D09F22D0F1
:1000DB0083D082C09FE493C0E0740193C0E07402AC
:1000EB0093F59F221F30001200DA520C001200DA37
:1000FB00A10C001200DAD30C001200DA650D00120D
:10010B0000DA0B0F001200DA5A0F001200DAD603D6
:10011B00001200DAEC03001200DAF803001200DA26
:10012B00FF03001200DA0904001200DA4204001285
:10013B0000DA9F04001200DAD204001200DA020582
:10014B00001200DA5905001200DAC905001200DAB4
:10015B002006001200DA5F06001200DA9206001287
:10016B0000DAD806001200DA0B07001200DA4A0791
:10017B00001200DA7A07001200DAAB07001200DA7D
:10018B005308001200DA8608001200DA2E0900125A
:10019B0000DA6109001200DA9209001200DACE09C6
:1001AB00001200DA560A001200DA8B0A001200DA8B
:1001BB00AF0A001200DA020B001200DA160C001262
:1001CB0000DA3A0C00CAC0E0E6F0A308DAFAD0E095
:1001DB00FA22251510AF08F515400C15168008F5F9
:1001EB001540021516D2AF2200C0D0251510AF084E
:1001FB00F515500C05168008F51550020516D2AFF3
:10020B00D0D0222515F58210AF08F515400C151628
:10021B008008F51540021516D2AF851683222515D9
:10022B00F582E43516F583222515FAE43516FB2203
:10023B002515FCE43516FD222515C582C0E0E51613
:10024B0034FFC583C0E0E515C3958224F810AF08D1
:10025B008583168582158008858316858215D2AF16
:10026B00CEF0A3E520F0A37808E608F0A3DEFAEFC2
:10027B00F0A3E58124FAF8E608F0A3E608F0A3E67C
:10028B0008F0A30808E608F0A3E608F0A31581150B
:10029B0081D0E0FED0E0F8158115811581E8C0E032
:1002AB00EEC0E022851683851582E0A3FEE0A3F560
:1002BB00207808E0A3F608DFFAE0A3FFE0A3C0E094
:1002CB00E0A3C0E0E0A3C0E0E0A3C0E0E0A3C0E097
:1002DB0010AF088582158583168008858215858366
:1002EB0016D2AFD083D0820200D774028000C0E058
:1002FB00F40412020ED0E01201D022D083D082EC93
:10030B00C0E0EDC0E0E493A3FCE493A3FDED4C60EF
:10031B000D120352EC24FFFCED34FFFD80EFE49350
:10032B00A3FCE493A3FDED4C600D120391EC24FFB1
:10033B00FCED34FFFD80EFD0E0FDD0E0FCE493A3B7
:10034B00C0E0E493C0E022C0E0C3E49396087401DC
:10035B00939618400FE4936670080874019366181F
:10036B0070007019A3A3C3E49396087401939618B5
:10037B00A3A3400DD0E0D0E0D0E0020342A3A3A39F
:10038B00A3A3A3D0E022C0E0C0F088F0E493667092
:10039B00080874019366187000A8F0A3A3700BD023
:1003AB00F0D0E0D0E0D0E0020342A3A3D0F0D0E045
:1003BB0022C0D0C2C7639001D0D032C0E0C0D0E51C
:1003CB0089758900C2C5D0D0D0E03253F3FB53FD01
:1003DB00FB438F4E7589FB758900C2C5D2BD0200E8
:1003EB00D7E9F4F589E942ABD2AF0200D7E9F45271
:1003FB00AB0200D743FE02C291D2870200D774F73B
:10040B0012024374FF1201DDE9FEEAFF8F0874FF4D
:10041B002508FFE50860167C01AA15AB16EEF9124C
:10042B00010AE90EAA15AB161201C480DF74011282
:10043B0001F37F010202AFC082C08374FF1201DDA2
:10044B00D2917A8279681200F885158285168374A9
:10045B00C7F07C01AA15AB16793E120110E9851580
:10046B00828516837431F07C01AA15AB16791712AD
:10047B000110E985158285168374FFF07C01AA159E
:10048B00AB167915120110E974011201F3D083D068
:10049B00820200D7C082C08374FF1201DD7A827999
:1004AB00681200F88515828516837468F0AA15AB5F
:1004BB00161201CA7A06791D12012E74011201F36C
:1004CB00D083D0820200D7C082C08374FF1201DDBB
:1004DB007A8279681200F87C01AA15AB16791A1288
:1004EB00010AE9851582851683E0F974011201F37F
:1004FB00D083D0820200D774F712024374FF12012B
:10050B00DDE9FE7A8279681200F87C01AA15AB1638
:10051B00793E12010AE9EE600B851582851683E0A0
:10052B0044408009851582851683E054BFC0E08561
:10053B001582851683D0E0F07C01AA15AB16793EA7
:10054B00120110E974011201F37F010202AFC082A4
:10055B00C08374FF1201DD7A81790F1200F88515C3
:10056B00828516837400F07C01AA15AB16791B12D9
:10057B000110E98515828516837403F07C01AA1599
:10058B00AB16791D120110E9851582851683743817
:10059B00F07C01AA15AB16791E120110E9851582A4
:1005AB00851683743FF07C01AA15AB16791F1201D7
:1005BB0010E974011201F3D083D0820200D774F7D3
:1005CB0012024374FF1201DDE9FE7A81790F1200EA
:1005DB00F87C01AA15AB16791B12010AE9EE600B28
:1005EB00851582851683E044208009851582851642
:1005FB0083E054DFC0E0851582851683D0E0F07C64
:10060B0001AA15AB16791B120110E974011201F343
:10061B007F010202AF74F712024374FF1201DDE98E
:10062B00FE7A81790F1200F87C01AA15AB16791BA3
:10063B0012010AE9851582851683E0D2E7F07C0169
:10064B00AA15AB16791B120110E974011201F37F85
:10065B00010202AFC082C08374FF1201DD7A81797F
:10066B000F1200F8851582851683740FF0AA15AB4F
:10067B00161201C47A06790612012E74011201F3C7
:10068B00D083D0820200D7C082C08374FF1201DDF9
:10069B007A81790E1200F88515828516837480F0A5
:1006AB007C01AA15AB167911120110E9851582850B
:1006BB001683740AF07C01AA15AB1679101201107F
:1006CB00E974011201F3D083D0820200D7C082C03B
:1006DB008374FF1201DD7A81790E1200F885158281
:1006EB00851683740EF0AA15AB161201C47A06791F
:1006FB000212012E74011201F3D083D0820200D7B3
:10070B0074F712024374FF1201DDE9FE7A81790E50
:10071B001200F87C01AA15AB16791012010AE985B3
:10072B001582851683E0D2E0F07C01AA15AB167911
:10073B0010120110E974011201F37F010202AFC024
:10074B0082C08374FF1201DD7A81790E1200F87C6E
:10075B0001AA15AB16790012010AE98515828516D7
:10076B0083E0F974011201F3D083D0820200D7C069
:10077B0082C08374FF1201DD7A8179771200F885CC
:10078B0015828516837400F07C01AA15AB1679F1DE
:10079B00120110E974011201F3D083D0820200D749
:1007AB0074F712024374FF1201DD89087A8179779D
:1007BB001200F88515828516837401F0E50824FE76
:1007CB00600E24FA602224F8602E24D0603A804810
:1007DB00851582851683E0C0E0851582851683D04A
:1007EB00E0F07E407F008046851582851683E0D23F
:1007FB00E3F07E007F018036851582851683E0D27B
:10080B00E4F07E007F028026851582851683E04406
:10081B0018F07E007F088016851582851683E0C050
:10082B00E0851582851683D0E0F07E407F007C0149
:10083B00AA15AB1679F1120110E9EEFAEFFB740170
:10084B001201F37F010202AFC082C08374FF120159
:10085B00DD7A8179771200F8851582851683747796
:10086B00F0AA15AB161201C47A0279F512012E7497
:10087B00011201F3D083D0820200D774F712024326
:10088B0074FF1201DD89087A8179771200F88515DA
:10089B00828516837403F0E50824FE600E24FA604B
:1008AB002224F8602E24D0603A8048851582851664
:1008BB0083E0C0E0851582851683D0E0F07E407F13
:1008CB00008046851582851683E0D2E3F07E007F9B
:1008DB00018036851582851683E0D2E4F07E007F99
:1008EB00028026851582851683E04418F07E007FF2
:1008FB00088016851582851683E0C0E085158285F4
:10090B001683D0E0F07E407F007C01AA15AB1679F0
:10091B00F1120110E9EEFAEFFB74011201F37F0102
:10092B000202AFC082C08374FF1201DD8515828580
:10093B0016837477F0AA15AB161201C47A817977F6
:10094B001200F87A0279F312012E74011201F3D01E
:10095B0083D0820200D7C082C08374FF1201DD7A7C
:10096B008179771200F88515828516837400F07CE7
:10097B0001AA15AB1679F1120110E974011201F3FA
:10098B00D083D0820200D7C082C0837A8179401293
:10099B0000F87C017A9B7B0279E712010AE990024D
:1009AB009BE0547EF090029AE0F890029BE048F0B6
:1009BB007C017A9B7B0279E6120110E9D083D0820D
:1009CB000200D7C082C08374FC1201DD7A817940AA
:1009DB001200F88515828516837440F0AA15AB16A4
:1009EB001201C479E31201ACE979037401120233E9
:1009FB001201B2E97402120229E054FCF0740112E4
:100A0B0002331201C47402120229AA82AB831201AF
:100A1B00C479E51201ACE9790374011202331201B6
:100A2B00B2E97402120229E054FCF0740112023391
:100A3B001201C47402120229AA82AB831201C4747C
:100A4B00041201F3D083D0820200D7C082C083741A
:100A5B00FF1201DDE9C0E0851582851683D0E0F039
:100A6B00AA15AB167901120104E96401700479012E
:100A7B008002790074011201F3D083D0820200D777
:100A8B0074F7120243EAFEEBFF8908EEFAEFFBA9BB
:100A9B00081200FEE9650870047901800279007F75
:100AAB00010202AF74F612024374FE1201DD43F130
:100ABB000143FE2043F430438680A815A91688080D
:100ACB00890978081202F5740312023B90029DE02B
:100ADB00FAA3E0FB1201BE74021201F385158285A5
:100AEB001683E042C57401120229E042C27402125D
:100AFB0001F37F020202AF74F6120243740A120270
:100B0B0029E0F8A3E0F9E8FEE9FF8A088B097808E9
:100B1B0012030600000B001800500B3000610B6035
:100B2B0000720B9000830BC000930B2001A30B8072
:100B3B0001B30B4002C30B0003D30B8004E30B0088
:100B4B0009F30B030C8C828D83743BF08E828F83A5
:100B5B007406F0020C118C828D83743BF08E828FA5
:100B6B00837407F0020C118C828D83743BF08E82A0
:100B7B008F837408F0020C118C828D8374D8F08EE5
:100B8B00828F837408F0807E8C828D83743BF08E11
:100B9B00828F837409F0806E8C828D8374D8F08E73
:100BAB00828F837409F0805E8C828D83743BF08E10
:100BBB00828F83740AF0804E8C828D8374D8F08E72
:100BCB00828F83740AF0803E8C828D83743BF08E0F
:100BDB00828F83740BF0802E8C828D8374D8F08E71
:100BEB00828F83740BF0801E8C828D8374D8F08E71
:100BFB00828F83740CF0800E8C828D83743BF08E0D
:100C0B00828F837408F07F020202AFC082C0838A96
:100C1B00828B83E0F8E8700479018002E8F9E9F847
:100C2B0088C1E586A2E040FAD083D0820200D7C00B
:100C3B0082C0838A828B83E0F5C1E586A2E040FA0D
:100C4B00D083D0820200D7C082C083E9F890623093
:100C5B00E0C2E3F0906230E0D2E5F0906230E0A2C7
:100C6B00E350F8906230E0C2E5F0906231E0640846
:100C7B007018900281E048906232F0906230E0C2CE
:100C8B00E3F0906230E0A2E350F8906231E0F9D0EB
:100C9B0083D0820200D7C082C083E9C33390028124
:100CAB00F09062347400F09062337400F090623014
:100CBB00E0547CF0906230E04AF0906230E0D2E693
:100CCB00F0D083D0820200D774F61202438909EA6E
:100CDB00FEEBFF75080079011200F2E96440600336
:100CEB00750900E509C394024007906230E0D2E237
:100CFB00F0E5096048740165097007906230E0C245
:100D0B00E2F0906230E0C2E3F0906230E0A2E35098
:100D1B00F8906232E0C0E08E828F83D0E0F08E825A
:100D2B008F83A3AE82AF8305081509906231E0640F
:100D3B005060BE906231E0645860021508906230DA
:100D4B00E0D2E4F0906230E0C2E3F0906230E0A2D7
:100D5B00E440F8A9087F020202AF74F7120243893C
:100D6B0008EAFEEBFF79001200F2E96418600375E4
:100D7B0008007800E8C39508503F8E828F83E0907F
:100D8B006232F08E828F83A3AE82AF83906230E0AB
:100D9B00C2E3F0906230E0A2E350F8906231E0647D
:100DAB00286013906231E064307007740128F508F5
:100DBB008007880880030880BB906230E0D2E4F0A3
:100DCB00906230E0C2E3F0906230E0A2E440F8A918
:100DDB00087F010202AF74FF1201DD53BEFBE59DDC
:100DEB00A2E650FAE5C654804449F5C6E59E547F09
:100DFB00644970F853C67FE59EA2E740FA53C6805C
:100E0B00E59E547F70FA43BE049062707408F04301
:100E1B00FE0243FD80D29143FD2043FF01758F4EAF
:100E2B00D2871201B812012812011643BE02120119
:100E3B003412014C7901120152120164D2AF7A9C27
:100E4B007B021201CA90029CE0A2E0501A790412B4
:100E5B00011C7900120158438701790412012212F7
:100E6B00015E790112015890029CE0A2E1501779C2
:100E7B0000120146120140E9F8E8A2E050F6120117
:100E8B003A790112014690029CE0A2E250177900D8
:100E9B00120170120176E9F8E8A2E350F612016A2A
:100EAB0079011201707E0890029CE0A2E35030128F
:100EBB00017CEEF9120182EAFF8F0874FF2508FF0F
:100ECB00E50870F5120188EEF912018EEAFF8F0921
:100EDB0074FF2509FFE50970F512019412019A9030
:100EEB00029CE0A2E450061201A01201A685158215
:100EFB008516837400F0AA15AB161201CA020E49AF
:100F0B0074F612024374FF1201DDE9C0E08515820D
:100F1B00851683D0E0F0EAFEEBFF8C08750900AA7A
:100F2B0015AB167901120104E96401700CEEFAEFAE
:100F3B00FBA9081200FEE9F509E5086509700479BB
:100F4B00018002790074011201F37F020202AF7477
:100F5B00F3120243890C8A088B098C0B7E827F0269
:100F6B00E50CC0E08E828F83D0E0F08E828F83A35E
:100F7B00AE82AF83750A00E50AC3950B502A85082C
:100F8B0082850983E0C0E08E828F83D0E0F08508F4
:100F9B0082850983A38582088583098E828F83A32B
:100FAB00AE82AF83050A80CF050B7A827B02A90B39
:100FBB00120104E9F50AE50B650A600AA2845004E4
:100FCB00C2848002D284E50B650A70047901800229
:070FDB0079007F050202AF5F
:04000005000000BF38
:00000001FF
