:020000040000FA
:0300000002007F7C
:0300130002037273
:10002B0002039700000080FBE490028178237901A2
:10003B008002F0A3D8FCD9FA7AA37B029000AF78A8
:10004B000579018015E493A3AD82AE838A828B83FD
:10005B00F0A3AA82AB838D828E83D8E9D9E7758210
:10006B002C75830B740012009175822E75830074AE
:10007B000012009175D00075813F751581751602C0
:10008B00759F00020033C09FF59FE473D09F22D071
:10009B0083D082C09FE493C0E0740193C0E07402EC
:1000AB0093F59F222F01600012009AD30C001200CF
:1000BB009A220D0012009A540D0012009AE60D00C0
:1000CB0012009A620E0012009AB10E0012009A9E54
:1000DB00030012009AAB030012009AB50300120042
:1000EB009A27040012009A99040012009AB2040095
:1000FB0012009AE2040012009A67050012009A801F
:10010B00050012009AB2050012009AF805001200C1
:10011B009A11060012009A41060012009A7206000C
:10012B0012009A1A070012009AA6070012009ADB17
:10013B00070012009A67080012009A80080012004C
:10014B009ABC080012009A28090012009A5D090057
:10015B0012009A81090012009ADC090012009AF031
:10016B000A0012009A140B00CAC0E0E6F0A308DAEA
:10017B00FAD0E0FA22700422600D18C6C333C60809
:10018B00C633C6D5E0F41822251510AF08F5154077
:10019B000C15168008F51540021516D2AF2200C0BB
:1001AB00D0251510AF08F515500C05168008F51560
:1001BB0050020516D2AFD0D0222515F58210AF080C
:1001CB00F515400C15168008F51540021516D2AF23
:1001DB00851683222515F582E43516F58322251520
:1001EB00FAE43516FB222515FCE43516FD22251500
:1001FB00C582C0E0E51634FFC583C0E0E515C395A5
:10020B008224F810AF0885831685821580088583B4
:10021B0016858215D2AFCEF0A3E520F0A37808E6C1
:10022B0008F0A3DEFAEFF0A3E58124FAF8E608F074
:10023B00A3E608F0A3E608F0A30808E608F0A3E697
:10024B0008F0A315811581D0E0FED0E0F8158115DB
:10025B00811581E8C0E0EEC0E0228516838515820A
:10026B00E0A3FEE0A3F5207808E0A3F608DFFAE0B0
:10027B00A3FFE0A3C0E0E0A3C0E0E0A3C0E0E0A3E5
:10028B00C0E0E0A3C0E010AF08858215858316801F
:10029B0008858215858316D2AFD083D08202009752
:1002AB0074028000C0E0F4041201C4D0E0120173A8
:1002BB0022D083D082ECC0E0EDC0E0E493A3FCE459
:1002CB0093A3FDED4C600D120308EC24FFFCED3401
:1002DB00FFFD80EFE493A3FCE493A3FDED4C600DD5
:1002EB00120347EC24FFFCED34FFFD80EFD0E0FD63
:1002FB00D0E0FCE493A3C0E0E493C0E022C0E0C3F1
:10030B00E49396087401939618400FE49366700873
:10031B0008740193661870007019A3A3C3E4939635
:10032B00087401939618A3A3400DD0E0D0E0D0E061
:10033B000202F8A3A3A3A3A3A3D0E022C0E0C0F0C2
:10034B0088F0E4936670080874019366187000A82F
:10035B00F0A3A3700BD0F0D0E0D0E0D0E00202F815
:10036B00A3A3D0F0D0E022C0E0C0D0C082C083C233
:10037B00AA5386FB639001E5C19002A3F09002A4FF
:10038B007401F0D083D082D0D0D0E032C0D0C2C7BD
:10039B00D0D032438F4E758900C2C5D2BD020097B3
:1003AB0043FE02C291D28702009774F51201F974D1
:1003BB00FE120193E9FEEAFF851582851683748090
:1003CB00F08F0A74FF250AFFE50A603F7C01740178
:1003DB001201E9EEF91200CBE90E74011201DFE014
:1003EB007004D2F08002C2F0A2F0E433F508750974
:1003FB0000EF7808120180851582851683E0450889
:10040B00F074011201E912016780B6AA15AB16123E
:10041B00016D74021201A97F03020265C082C083C1
:10042B0074FF120193D2917A8279681200B9851503
:10043B00828516837400F07C01AA15AB16793E12E7
:10044B0000D1E98515828516837431F07C01AA15DC
:10045B00AB1679171200D1E98515828516837400C6
:10046B00F07C01AA15AB1679151200D1E98515821E
:10047B008516837418F07C01AA15AB167916120039
:10048B00D1E974011201A9D083D082020097C082F6
:10049B00C0837A8279681200B97A06791D1200E35B
:1004AB00D083D082020097C082C08374FF12019365
:1004BB007A8279681200B97C01AA15AB16791A12E7
:1004CB0000CBE9851582851683E0F974011201A929
:1004DB00D083D082020097C082C08374FF12019335
:1004EB007A81790F1200B98515828516837400F015
:1004FB007C01AA15AB16791B1200D1E985158285F3
:10050B0016837403F07C01AA15AB16791D1200D16A
:10051B00E98515828516837438F07C01AA15AB1614
:10052B00791E1200D1E9851582851683743FF07C04
:10053B0001AA15AB16791F1200D1E9851582851614
:10054B008374F8F07C01AA15AB16791B1200D1E964
:10055B0074011201A9D083D082020097C082C0839C
:10056B007A81790F1200B97A0679061200E3D083EB
:10057B00D082020097C082C08374FF1201937A81EC
:10058B00790F1200B97C01AA15AB1679161200CBA4
:10059B00E9851582851683E05410F974011201A9BF
:1005AB00D083D082020097C082C08374FF12019364
:1005BB007A81790E1200B98515828516837480F0C5
:1005CB007C01AA15AB1679111200D1E9851582852C
:1005DB001683740BF07C01AA15AB1679101200D19F
:1005EB00E974011201A9D083D082020097C082C0A6
:1005FB00837A81790E1200B97A0679011200E3D061
:10060B0083D082020097C082C08374FF1201937A59
:10061B0081790E1200B97C01AA15AB167900120074
:10062B00CBE9851582851683E0F974011201A9D0F7
:10063B0083D082020097C082C08374FF1201937A29
:10064B008179771200B98515828516837400F07C49
:10065B0001AA15AB1679F11200D1E974011201A9A7
:10066B00D083D08202009774F71201F974FF120144
:10067B009389087A8179771200B98515828516835B
:10068B007401F0E50824FE600E24FA602224F86061
:10069B002E24D0603A8048851582851683E0C0E011
:1006AB00851582851683D0E0F07E407F00804685DD
:1006BB001582851683E0D2E3F07E007F01803685BC
:1006CB001582851683E0D2E4F07E007F02802685BA
:1006DB001582851683E04418F07E007F088016850E
:1006EB001582851683E0C0E0851582851683D0E0E0
:1006FB00F07E407F007C01AA15AB1679F11200D178
:10070B00E9EEFAEFFB74011201A97F010202657495
:10071B00F71201F974FF120193E9FE7A81797712CE
:10072B0000B98515828516837480F0EE60187C0104
:10073B007A9A7B0279F51200CBE97C017A9B7B02DA
:10074B0079F61200CBE990029AE07004D2F08002A5
:10075B00C2F0A2F0E433F8851582851683E048F0E9
:10076B0090029BE07004D2F08002C2F0A2F0E4335E
:10077B00C333F8851582851683E048F07A9A7B029D
:10078B001201677A9B7B02120167AA15AB16120145
:10079B006D74011201A97F01020265C082C08374CE
:1007AB00FF1201937A8179771200B985158285162C
:1007BB00837413F07C01AA15AB1679F11200D1E901
:1007CB007A007BFA74011201A9D083D082020097C0
:1007DB0074F71201F974FF120193E9FE7A817977AC
:1007EB001200B98515828516837480F0EE60187C33
:1007FB00017A9C7B0279F51200CBE97C017A9D7B17
:10080B000279F61200CBE990029CE07004D2F080E2
:10081B0002C2F0A2F0E433F8851582851683E04816
:10082B00F090029DE07004D2F08002C2F0A2F0E4DE
:10083B0033C333F8851582851683E048F07A9C7BA9
:10084B00021201677A9D7B02120167AA15AB161281
:10085B00016D74011201A97F01020265C082C08380
:10086B007A8179771200B97A10798E1200E3D083EE
:10087B00D082020097C082C0837A8179401200B97E
:10088B007C017A9F7B0279E71200CBE990029FE013
:10089B00547EF090029EE0F890029FE048F07C01BD
:1008AB007A9F7B0279E61200D1E9D083D0820200D5
:1008BB009774F71201F9E9FE7A8179401200B9EECB
:1008CB00601779E512014FE979037AA07B021201D7
:1008DB0055E99002A1E054FCF07AA07B021201676B
:1008EB007AA17B021201679002A2E07004D2F08021
:1008FB0002C2F09002A2E07004D2F18002C2F1A217
:10090B00F1E433C333F8A2F0E4334844809002A2FD
:10091B00F07AA27B021201677F01020265C082C0DE
:10092B008374FF120193E9C0E0851582851683D08D
:10093B00E0F0AA15AB1679011200C5E96401700449
:10094B0079018002790074011201A9D083D082024F
:10095B00009774F71201F9EAFEEBFF8908EEFAEF44
:10096B00FBA9081200BFE9650870047901800279C0
:10097B00007F0102026574F61201F974FE120193F5
:10098B0043F10143FE2043F430438680A815A9169A
:10099B008808890978081202AB74031201F19002DE
:1009AB00A5E0FAA3E0FB12016174021201A98515FF
:1009BB0082851683E042C574011201DFE042C24317
:1009CB00C480438640D2AA74021201A97F0202029C
:1009DB006574F61201F9740A1201DFE0F8A3E0F96D
:1009EB00E8FEE9FF8A088B0978081202BC00000BAD
:1009FB000018002A0A30003B0A60004C0A90005D88
:100A0B000AC0006D0A20017D0A80018D0A40029DFB
:100A1B000A0003AD0A8004BD0A0009CD0ADD0A8C69
:100A2B00828D83743BF08E828F837406F0020AEB07
:100A3B008C828D83743BF08E828F837407F0020A55
:100A4B00EB8C828D83743BF08E828F837408F00263
:100A5B000AEB8C828D8374D8F08E828F837408F0AE
:100A6B00807E8C828D83743BF08E828F837409F031
:100A7B00806E8C828D8374D8F08E828F837409F094
:100A8B00805E8C828D83743BF08E828F83740AF030
:100A9B00804E8C828D8374D8F08E828F83740AF093
:100AAB00803E8C828D83743BF08E828F83740BF02F
:100ABB00802E8C828D8374D8F08E828F83740BF092
:100ACB00801E8C828D8374D8F08E828F83740CF091
:100ADB00800E8C828D83743BF08E828F837408F032
:100AEB007F02020265C082C0838A828B83E0F8E8B2
:100AFB00700479018002E8F9E9F888C1E586A2E083
:100B0B0040FAD083D082020097C082C0838A828B46
:100B1B0083E0F5C1E586A2E040FAD083D0820200E3
:100B2B009774FE12019353BEFBE59DA2E650FAE5C6
:100B3B00C654804449F5C6E59E547F644970F8530A
:100B4B00C67FE59EA2E740FA53C680E59E547F70B0
:100B5B00FA43BE049062707408F043FE0243FD80BA
:100B6B00D29143FD2043FF01758F4ED28712015B5B
:100B7B005386FB4386401200DD1200D743FE014330
:100B8B00FD10C2901200E91200FB12010D12011FA1
:100B9B00D2AF43BE027E019002A4E07003020CCBE5
:100BAB007AA37B0212016D9002A3E0A2E05026858E
:100BBB0015828516837401F0AA15AB161201671204
:100BCB000107E960FA1201011200F5E9F8E8A2E069
:100BDB0050F61200EF9002A3E0A2E1501D851582A2
:100BEB008516837402F0AA15AB1612016712011950
:100BFB00E9F8E8A2E350F61201137F029002A3E09A
:100C0B00A2E2505D8515828516837404F0AA15AB9C
:100C1B0016120167750803EE14600B14601A14604A
:100C2B0024146031803BEFF9120125790012012B5E
:100C3B0079001201370E8029790112012B790012EC
:100C4B0001370E801C120131790012012B79001231
:100C5B0001370E800C790012012B79011201377EBE
:100C6B00019002A3E0A2E3501885158285168374C8
:100C7B0008F0AA15AB161201671201437901120194
:100C8B00499002A3E0A2E450138515828516837464
:100C9B0010F0AA15AB1612016712013D7401120177
:100CAB00DF7400F074011201E912016D9002A3E0F0
:100CBB00A2E5400AD2849002A47400F08002C284A0
:100CCB00D2AA5386FB020BA2C082C083E9F89062C2
:100CDB0030E0C2E3F0906230E0D2E5F0906230E0B9
:100CEB00A2E350F8906230E0C2E5F0906231E0642C
:100CFB00087018900281E048906232F0906230E008
:100D0B00C2E3F0906230E0A2E350F8906231E0F978
:100D1B00D083D082020097C082C083E9C333900294
:100D2B0081F09062347400F09062337400F0906242
:100D3B0030E0547CF0906230E04AF0906230E0D2C8
:100D4B00E6F0D083D08202009774F61201F989097C
:100D5B00EAFEEBFF75080079011200B3E96440600D
:100D6B0003750900E509C394024007906230E0D295
:100D7B00E2F0E5096048740165097007906230E0A4
:100D8B00C2E2F0906230E0C2E3F0906230E0A2E3A6
:100D9B0050F8906232E0C0E08E828F83D0E0F08E0C
:100DAB00828F83A3AE82AF8305081509906231E071
:100DBB00645060BE906231E0645860021508906226
:100DCB0030E0D2E4F0906230E0C2E3F0906230E0C9
:100DDB00A2E440F8A9087F0202026574F71201F938
:100DEB008908EAFEEBFF79001200B3E9641860038F
:100DFB007508007800E8C39508503F8E828F83E01A
:100E0B00906232F08E828F83A3AE82AF839062307A
:100E1B00E0C2E3F0906230E0A2E350F8906231E080
:100E2B0064286013906231E064307007740128F518
:100E3B00088007880880030880BB906230E0D2E40A
:100E4B00F0906230E0C2E3F0906230E0A2E440F850
:100E5B00A9087F0102026574F61201F974FF1201F1
:100E6B0093E9C0E0851582851683D0E0F0EAFEEBAE
:100E7B00FF8C08750900AA15AB1679011200C5E99C
:100E8B006401700CEEFAEFFBA9081200BFE9F5093B
:100E9B00E50865097004790180027900740112017B
:100EAB00A97F0202026574F31201F9890C8A088B7F
:100EBB00098C0B7E827F02E50CC0E08E828F83D083
:100ECB00E0F08E828F83A3AE82AF83750A00E50AB2
:100EDB00C3950B502A850882850983E0C0E08E827A
:100EEB008F83D0E0F0850882850983A385820885EE
:100EFB0083098E828F83A3AE82AF83050A80CF05D1
:100F0B000B7A827B02A90B1200C5E9F50AE50B658A
:100F1B000A600AA2845004C2848002D284E50B6565
:0E0F2B000A70047901800279007F05020265D8
:040000050000007F78
:00000001FF
