:020000040000FA
:030000000200BF3C
:030013000203A045
:03002B000203F9D4
:10006B0002041500000080FBE4900281782B7901DB
:10007B008002F0A3D8FCD9FA7AAB7B029000EF7820
:10008B000779018015E493A3AD82AE838A828B83BB
:10009B00F0A3AA82AB838D828E83D8E9D9E77582D0
:1000AB00DB75830C74001200D175826E758300743E
:1000BB00001200D175D00075813F75158175160240
:1000CB00759F00020073C09FF59FE473D09F22D0F1
:1000DB0083D082C09FE493C0E0740193C0E07402AC
:1000EB0093F59F2200FF000060001200DAEE08007B
:1000FB001200DA3D09001200DA6F09001200DA0172
:10010B000A001200DA040C001200DA530C00120081
:10011B00DA2504001200DA5604001200DA6004003B
:10012B001200DA9B04001200DAF804001200DA96CF
:10013B0005001200DA0606001200DA94060012001F
:10014B00DADA06001200DA6807001200DA99070003
:10015B001200DADB07001200DA1708001200DA953A
:10016B0008001200DACA08001200DAA90D0012000A
:10017B00DAFB0D001200DA7D0A001200DAD80A0051
:10018B001200DAEC0B00E026F008A3E036F008A32F
:10019B00E036F008A3E036F022E0FAA3E0FBA3E0A0
:1001AB00FCA3E0FD22EAF0A3EBF0A3ECF0A3EDF04F
:1001BB0022CAC0E0E6F0A308DAFAD0E0FA2225154D
:1001CB0010AF08F515400C15168008F515400215F3
:1001DB0016D2AF2200C0D0251510AF08F515500C64
:1001EB0005168008F51550020516D2AFD0D0222582
:1001FB0015F58210AF08F515400C15168008F5158E
:10020B0040021516D2AF851683222515F582E435EB
:10021B0016F583222515FCE43516FD222515C5821E
:10022B00C0E0E51634FFC583C0E0E515C395822415
:10023B00F810AF088583168582158008858316858F
:10024B008215D2AFCEF0A3E520F0A37808E608F034
:10025B00A3DEFAEFF0A3E58124FAF8E608F0A3E6B3
:10026B0008F0A3E608F0A30808E608F0A3E608F0F8
:10027B00A315811581D0E0FED0E0F815811581150D
:10028B0081E8C0E0EEC0E022851683851582E0A3ED
:10029B00FEE0A3F5207808E0A3F608DFFAE0A3FF61
:1002AB00E0A3C0E0E0A3C0E0E0A3C0E0E0A3C0E0B7
:1002BB00E0A3C0E010AF0885821585831680088502
:1002CB008215858316D2AFD083D0820200D77402F9
:1002DB008000C0E0F4041201FAD0E01201BC22D07D
:1002EB0083D082ECC0E0EDC0E0E493A3FCE493A3E5
:1002FB00FDED4C600D120336EC24FFFCED34FFFDDD
:10030B0080EFE493A3FCE493A3FDED4C600D12038B
:10031B0075EC24FFFCED34FFFD80EFD0E0FDD0E069
:10032B00FCE493A3C0E0E493C0E022C0E0C3E493F9
:10033B0096087401939618400FE49366700808743E
:10034B000193661870007019A3A3C3E49396087405
:10035B0001939618A3A3400DD0E0D0E0D0E00203A8
:10036B0026A3A3A3A3A3A3D0E022C0E0C0F088F0F0
:10037B00E4936670080874019366187000A8F0A3E4
:10038B00A3700BD0F0D0E0D0E0D0E0020326A3A303
:10039B00D0F0D0E022C0E0C0D0C008C009C082C0FD
:1003AB0083C2AA900289E0F508740125089002899E
:1003BB00F0E5C1C0E075090074812508F58274026F
:1003CB003509F583D0E0F090028AE02401F0900229
:1003DB0089E0640870069002897400F0D2AA6390D9
:1003EB0001D083D082D009D008D0D0D0E032C0E089
:1003FB00C0D0C082C083C2C763900190028B7401CE
:10040B00F0D083D082D0D0D0E032C0E0C0D0E5892C
:10041B00758900C2C5D0D0D0E03253F3FD53FDFD3A
:10042B0053F3FB53FDFB53F3BF53FDBF53F3F75391
:10043B00FDF7438F4E7589FD7589FB7589BF7589EE
:10044B00F7758900C2C5D2BD0200D743FE02C29127
:10045B00D2870200D774F7120227E9FEEE24F2606E
:10046B001B14600E24CF601E24D8600B24F1601186
:10047B00801712013D8012120131800D120149804B
:10048B0008120155800312016179017F0102029369
:10049B00C082C08374FF1201C9D2917A827968122B
:1004AB0000FB85158285168374C7F07C01AA15ABFA
:1004BB0016793E120113E98515828516837431F086
:1004CB007C01AA15AB167917120113E985158285E4
:1004DB00168374FFF07C01AA15AB16791512011364
:1004EB00E974011201DFD083D0820200D7C082C031
:1004FB008374FF1201C97A8279681200FB85158219
:10050B008516837468F0AA15AB1612018B7C01AAB1
:10051B0015AB16791D12010DE9AA15AB1612018B3D
:10052B007C01AA15AB16791E12010DE9AA15AB16A3
:10053B0012018B7C01AA15AB16791F12010DE9AACA
:10054B0015AB1612018B7C01AA15AB167920120183
:10055B000DE9AA15AB1612018B7C01AA15AB167906
:10056B002112010DE9AA15AB1612018B7C01AA15FC
:10057B00AB16792212010DE9AA15AB1612018B7479
:10058B00011201DFD083D0820200D7C082C08374F6
:10059B00FF1201C97A81790F1200FB85158285162E
:1005AB00837400F07C01AA15AB16791B120113E9B9
:1005BB008515828516837403F07C01AA15AB167919
:1005CB001D120113E98515828516837438F07C01A1
:1005DB00AA15AB16791E120113E9851582851683B0
:1005EB00743FF07C01AA15AB16791F120113E97445
:1005FB00011201DFD083D0820200D7C082C0837486
:10060B00FF1201C97A81790F1200FB7C01AA15AB8D
:10061B0016790612010DE9AA15AB1612018B7C0196
:10062B00AA15AB16790712010DE9AA15AB16120123
:10063B008B7C01AA15AB16790812010DE9AA15AB33
:10064B001612018B7C01AA15AB16790912010DE963
:10065B00AA15AB1612018B7C01AA15AB16790A12DF
:10066B00010DE9AA15AB1612018B7C01AA15AB166D
:10067B00790B12010DE9AA15AB1612018B7401123D
:10068B0001DFD083D0820200D7C082C08374FF12F7
:10069B0001C97A81790E1200FB8515828516837448
:1006AB0080F07C01AA15AB167911120113E985159F
:1006BB0082851683741AF07C01AA15AB1679101279
:1006CB000113E974011201DFD083D0820200D7C07D
:1006DB0082C08374FF1201C97A81790E1200FB7CF0
:1006EB0001AA15AB16790212010DE9AA15AB161268
:1006FB00018B7C01AA15AB16790112010DE9AA1524
:10070B00AB1612018B7C01AA15AB16790412010DE5
:10071B00E9AA15AB1612018B7C01AA15AB1679034E
:10072B0012010DE9AA15AB1612018B7C01AA15ABB0
:10073B0016790612010DE9AA15AB1612018B7C0175
:10074B00AA15AB16790512010DE9AA15AB16120104
:10075B008B74011201DFD083D0820200D7C082C01C
:10076B008374FF1201C97A8179771200FB85158298
:10077B008516837400F07C01AA15AB1679F1120172
:10078B0013E974011201DFD083D0820200D7C0823B
:10079B00C08374FF1201C97A8179771200FB7C0147
:1007AB00AA15AB1679F512010DE9AA15AB161201B4
:1007BB008B7C01AA15AB1679F612010DE9AA15ABC4
:1007CB001612018B74011201DFD083D0820200D785
:1007DB00C082C0837A8179401200FB7C017AA67BB0
:1007EB000279E712010DE99002A6E0547EF0900227
:1007FB00A5E0F89002A6E048F07C017AA67B02798E
:10080B00E6120113E9D083D0820200D7C082C083E5
:10081B0074FA1201C97A8179401200FB79E3120153
:10082B0067E97903AA15AB1612016DE979E5120197
:10083B0067E979037403120215AA82AB8312016D67
:10084B00E97401120215E054FCF07404120215E075
:10085B0054FCF0AA15AB1612018B7401120215AAE7
:10086B0082AB8312018B7403120215AA82AB831223
:10087B00018B7404120215AA82AB8312018B7406CE
:10088B001201DFD083D0820200D7C082C08374FFF5
:10089B001201C9E9C0E0851582851683D0E0F0AA64
:1008AB0015AB167901120107E96401700479018017
:1008BB0002790074011201DFD083D0820200D77459
:1008CB00F7120227EAFEEBFF8908EEFAEFFBA90805
:1008DB00120101E9650870047901800279007F013A
:1008EB00020293C082C083E9F8906230E0C2E3F069
:1008FB00906230E0D2E5F0906230E0A2E350F890E5
:10090B006230E0C2E5F0906231E06408701890024A
:10091B008CE048906232F0906230E0C2E3F090627B
:10092B0030E0A2E350F8906231E0F9D083D082023C
:10093B0000D7C082C083E9C33390028CF09062343D
:10094B007400F09062337400F0906230E0547CF0ED
:10095B00906230E04AF0906230E0D2E6F0D083D083
:10096B00820200D774F61202278909EAFEEBFF75A3
:10097B00080079011200F5E964406003750900E590
:10098B0009C394024007906230E0D2E2F0E50960BF
:10099B0048740165097007906230E0C2E2F0906222
:1009AB0030E0C2E3F0906230E0A2E350F8906232A4
:1009BB00E0C0E08E828F83D0E0F08E828F83A3AE77
:1009CB0082AF8305081509906231E0645060BE90D8
:1009DB006231E0645860021508906230E0D2E4F0B6
:1009EB00906230E0C2E3F0906230E0A2E440F8A9FC
:1009FB00087F0202029374F71202278908EAFEEBC2
:100A0B00FF79001200F5E96418600375080078009F
:100A1B00E8C39508503F8E828F83E0906232F08E50
:100A2B00828F83A3AE82AF83906230E0C2E3F090FB
:100A3B006230E0A2E350F8906231E06428601390DA
:100A4B006231E064307007740128F508800788086C
:100A5B0080030880BB906230E0D2E4F0906230E01B
:100A6B00C2E3F0906230E0A2E440F8A9087F0102F3
:100A7B00029374F612022774FE1201C943F101436B
:100A8B00FE2043F430438680A815A91688088909EF
:100A9B0078081202D9740312021F9002AFE0FAA376
:100AAB00E0FB12018574021201DF85158285168326
:100ABB00E042C57401120215E042C243C480438672
:100ACB0040D2AA74021201DF7F0202029374F61263
:100ADB000227740A120215E0F8A3E0F9E8FEE9FF19
:100AEB008A088B0978081202EA00000B001800260E
:100AFB000B3000370B6000480B9000590BC000699E
:100B0B000B2001790B8001890B4002990B0003A983
:100B1B000B8004B90B0009C90BD90B8C828D837424
:100B2B003BF08E828F837406F0020BE78C828D83F1
:100B3B00743BF08E828F837407F0020BE78C828DEF
:100B4B0083743BF08E828F837408F0020BE78C82E8
:100B5B008D8374D8F08E828F837408F0807E8C82A4
:100B6B008D83743BF08E828F837409F0806E8C8240
:100B7B008D8374D8F08E828F837409F0805E8C82A3
:100B8B008D83743BF08E828F83740AF0804E8C823F
:100B9B008D8374D8F08E828F83740AF0803E8C82A2
:100BAB008D83743BF08E828F83740BF0802E8C823E
:100BBB008D8374D8F08E828F83740BF0801E8C82A1
:100BCB008D8374D8F08E828F83740CF0800E8C82A0
:100BDB008D83743BF08E828F837408F07F02020248
:100BEB0093C082C0838A828B83E0F5C1E586A2E045
:100BFB0040FAD083D0820200D774F612022774FF1A
:100C0B001201C9E9C0E0851582851683D0E0F0EAB0
:100C1B00FEEBFF8C08750900AA15AB1679011201C2
:100C2B0007E96401700CEEFAEFFBA908120101E968
:100C3B00F509E508650970047901800279007401F2
:100C4B001201DF7F0202029374F3120227890C8ACE
:100C5B00088B098C0B7E8D7F02E50CC0E08E828F9A
:100C6B0083D0E0F08E828F83A3AE82AF83750A00B0
:100C7B00E50AC3950B502A850882850983E0C0E0FD
:100C8B008E828F83D0E0F0850882850983A38582CD
:100C9B00088583098E828F83A3AE82AF83050A807A
:100CAB00CF050B7A8D7B02A90B120107E9F50AE53B
:100CBB000B650A600AA2845004C2848002D284E5C8
:100CCB000B650A70047901800279007F050202939B
:100CDB0053BEFBE59DA2E650FAE5C654804449F5A8
:100CEB00C6E59E547F644970F853C67FE59EA2E724
:100CFB0040FA53C680E59E547F70FA43BE0490625F
:100D0B00707408F043FE0143FD1043FE0243FD8067
:100D1B00D29143FD2043FF0143FE3C758F4ED2879A
:100D2B00D291D28753F3FE53FDFE43AB0153F3FD38
:100D3B0053FDFD53F3FB53FDFB53F3BF53FDBF5368
:100D4B00F3F753FDF7438F4E758900C2C5D2BD1221
:100D5B00017F12011F12011912012B12013712010F
:100D6B004312014F12015B43FE0143FD10D290D29F
:100D7B008443BE02D2AF9002AB1201A41201739056
:100D8B00028BE0601590028B7400F07968120125DC
:100D9B00E99002AB1201A4120173D2AA80E174F4A0
:100DAB0012022774FC1201C98A088B098C0A8D0B5D
:100DBB00C2AD1201798515828516831201B0851596
:100DCB008285168378081201917402120215E0F5E0
:100DDB00977401120215E0F596851582851683E04E
:100DEB00F595C2C7D2AD74041201DF7F04020293E2
:100DFB00C082C083E5959002A7F0E5969002A8F01B
:100E0B00E5979002A9F09002AA7400F09002A71245
:090E1B0001A4D083D0820200D7AB
:04000005000000BF38
:00000001FF
